:100000000C94D5000C94FD000C94FD000C94FD00A4
:100010000C94FD000C94FD000C94FD000C94FD006C
:100020000C94FD000C94FD000C94FD000C94FD005C
:100030000C94FD000C94FD000C94FD000C94FD004C
:100040000C9468060C94FD000C94D8060C94B2062F
:100050000C94FD000C94FD000C94FD000C94FD002C
:100060000C940A070C94FD0000407A10F35A00A08B
:10007000724E18090010A5D4E80000E87648170071
:1000800000E40B54020000CA9A3B000000E1F505B1
:10009000000080969800000040420F000000A086FB
:1000A00001000000102700000000E803000000002D
:1000B0006400000000000A000000000001000000D1
:1000C00000002C76D888DC674F0823DFC1DFAE59EB
:1000D000E1B1B796E5E3E453C63AE651997696E87E
:1000E000E6C28426EB898C9B62ED407C6FFCEFBC02
:1000F0009C9F40F2BAA56FA5F490055A2AF75C932D
:100100006B6CF9676DC11BFCE0E40D47FEF520E662
:10011000B500D0ED902E0300943577050080841E45
:10012000080000204E0A000000C80C333333330FA0
:10013000986E12831141EF8D2114893BE65516CF3D
:10014000FEE6DB18D1844B381BF77C1D901DA4BB49
:10015000E424203284725E228100C9F124ECA1E5FE
:100160003D2700000000250028002B0004040404A3
:100170000404040402020202020203030303030351
:10018000010204081020408001020408102001022E
:10019000040810200000000800020100000304070A
:1001A0000000000000000000290811241FBECFEF4E
:1001B000D8E0DEBFCDBF22E0A6E4B1E001C01D92D1
:1001C000AD3BB207E1F711E0A0E0B1E0E0ECF2E214
:1001D00002C005900D92A634B107D9F710E0C5ED25
:1001E000D0E004C02197FE010E94660FC43DD107F4
:1001F000C9F70E9465080C945E110C94000090E011
:10020000FC01EC56FE4F2491FC01E058FE4F349166
:10021000FC01E459FE4FE491EE23C9F0222339F0AA
:10022000233001F1A8F4213019F1223029F1F0E056
:10023000EE0FFF1FEE59FE4FA591B4918FB7F894C2
:10024000EC91611126C030953E233C938FBF0895F9
:100250002730A9F02830C9F0243049F78091800078
:100260008F7D03C0809180008F7780938000DFCFE7
:1002700084B58F7784BDDBCF84B58F7DFBCF809134
:10028000B0008F778093B000D2CF8091B0008F7D87
:10029000F9CF3E2BDACF3FB7F8948091950190913A
:1002A0009601A0919701B091980126B5A89B05C031
:1002B0002F3F19F00196A11DB11D3FBFBA2FA92FE5
:1002C000982F8827BC01CD01620F711D811D911DE2
:1002D00042E0660F771F881F991F4A95D1F708954E
:1002E00080918E0190918F01891B990B089508953B
:1002F0000895AF92BF92CF92DF92EF92FF920F9349
:100300001F93CF93DF936C017B018B01040F151FAB
:10031000EB015E01AE18BF08C017D10759F0699113
:10032000D601ED91FC910190F081E02DC601099577
:10033000892B79F7C501DF91CF911F910F91FF9024
:10034000EF90DF90CF90BF90AF900895FC01538D58
:10035000448D252F30E0842F90E0821B930B54179F
:1003600010F0CF96089501970895FC01918D828D2C
:10037000981761F0A28DAE0FBF2FB11D5D968C91C5
:10038000928D9F5F9F73928F90E008958FEF9FEF04
:100390000895FC01918D828D981731F0828DE80FC0
:1003A000F11D858D90E008958FEF9FEF0895FC017A
:1003B000918D228D892F90E0805C9F4F821B910947
:1003C0008F739927089589E092E00E94D70121E078
:1003D000892B09F420E0822F089580E090E0892B9A
:1003E00029F00E94E30181110C9400000895FC01A2
:1003F000A48DA80FB92FB11DA35ABF4F2C91848D86
:1004000090E001968F739927848FA689B7892C93E2
:10041000A089B1898C91837080648C93938D848D35
:10042000981306C00288F389E02D80818F7D808338
:100430000895EF92FF920F931F93CF93DF93EC01F8
:1004400081E0888F9B8D8C8D98131AC0E889F9897B
:10045000808185FF15C09FB7F894EE89FF8960837E
:10046000E889F98980818370806480839FBF81E0FF
:1004700090E0DF91CF911F910F91FF90EF90089541
:10048000F62E0B8D10E00F5F1F4F0F731127E02E1C
:100490008C8D8E110CC00FB607FCFACFE889F98954
:1004A000808185FFF5CFCE010E94F701F1CFEB8D62
:1004B000EC0FFD2FF11DE35AFF4FF0829FB7F89428
:1004C0000B8FEA89FB8980818062CFCFCF93DF9346
:1004D000EC01888D8823B9F0AA89BB89E889F9895C
:1004E0008C9185FD03C0808186FD0DC00FB607FC91
:1004F000F7CF8C9185FFF2CF808185FFEDCFCE01C4
:100500000E94F701E9CFDF91CF9108952091670113
:10051000260F3327331F21323105ECF42091DF0100
:10052000FC0190E080E0243069F082E00895A09121
:1005300067012191AC01495B5E4FA40FB52FB11D3E
:100540002C930196861798F380916701680F60934A
:10055000670180E0089581E008951092DF0181E055
:100560008093DE011092B90161E082E10E94FF00F8
:1005700061E083E10E94FF00E9EBF0E080818E7F83
:10058000808380818D7F808388E48093B80085E4B8
:100590008093BC000895CF93DF9391E09093460140
:1005A0008823B9F0C091B800D091BA008091BC0006
:1005B0008A7B8093BC0060E082E10E94FF0060E0E3
:1005C00083E10E94FF000E94AD02D093BA00C09365
:1005D000B800DF91CF9108958F929F92AF92BF9212
:1005E000CF92DF92EF92FF920F931F93CF93DF93FF
:1005F000D0910802D13208F0D7C0182FC09107025D
:100600000E944B016B017C018091DF0181116BC065
:1006100082E08093DF011093DE018FEF8093DD0194
:100620001092DC01D093DB01A7EEB1E0EBEBF1E03F
:1006300080E0D81391C01092BA018091BA01CC0F1A
:10064000C82BC093BA018091B901813009F088C0EC
:100650001092B9010E944B016B017C018091BA019B
:100660008093BB008091E1019091E201A091E301B0
:10067000B091E401892B8A2B8B2BA1F00E944B01B6
:100680000091E1011091E2012091E3013091E40138
:100690006C197D098E099F09061717072807390766
:1006A00008F442C08091BC0083FDD8CF85EC8093D4
:1006B000BC000E944B016B017C018091DF01823004
:1006C00009F450C08091DD018F3F09F46FC0809123
:1006D000DD01803209F46CC08091DD01803309F4C2
:1006E00069C084E026C08091E1019091E201A0916F
:1006F000E301B091E401892B8A2B8B2B09F484CF81
:100700000E944B018090E1019090E201A090E301F2
:10071000B090E4016C197D098E099F098616970631
:10072000A806B90608F070CF8091E0010E94CB02C4
:1007300085E01092E601109208021092E501DF9127
:10074000CF911F910F91FF90EF90DF90CF90BF90CE
:10075000AF909F908F9008959D9191938F5F69CFF7
:1007600085EEA5CF8091E1019091E201A091E30196
:10077000B091E401892B8A2B8B2B09F49ECF0E9428
:100780004B010091E1011091E2012091E3013091D0
:10079000E4016C197D098E099F09061717072807C0
:1007A000390708F08ACFC0CF81E0C3CF80E0C1CF46
:1007B00082E0BFCF83E0BDCFCF92DF92EF92FF9276
:1007C0000F931F93CF93DF93D82FC62F613208F07A
:1007D00098C00E944B016B017C018091DF01811167
:1007E0006BC081E08093DF018093DE019FEF9093E7
:1007F000DD011092DC019C0F9093DB018093BA0124
:100800008091BA01DD0FD82BD093BA018091B90144
:10081000813009F078C01092B9010E944B016B0140
:100820007C018091BA018093BB008091E10190919D
:10083000E201A091E301B091E401892B8A2B8B2B7B
:10084000A1F00E944B010091E1011091E201209181
:10085000E3013091E4016C197D098E099F090617A7
:1008600017072807390708F448C08091BC0083FDAA
:10087000D8CF85EC8093BC000E944B016B017C01BA
:100880008091DF01813009F440C08091DC018C1738
:1008900010F4C091DC01EBEBF1E0A9E9B1E080E0FC
:1008A0008C1355C08C2FDF91CF911F910F91FF902A
:1008B000EF90DF90CF9008958091E1019091E20157
:1008C000A091E301B091E401892B8A2B8B2B09F4D1
:1008D00084CF0E944B010091E1011091E20120912F
:1008E000E3013091E4016C197D098E099F09061717
:1008F00017072807390708F070CF8091E0010E94A0
:10090000CB02C0E0CFCF85EEB5CF8091E1019091D1
:10091000E201A091E301B091E401892B8A2B8B2B9A
:1009200009F4AECF0E944B010091E1011091E20168
:100930002091E3013091E4016C197D098E099F0932
:10094000061717072807390708F09ACFD6CF9191D5
:100950009D938F5FA5CF0895E0918F0180918E01C7
:10096000E81730F4F0E0E756FE4F808190E00895FC
:100970008FEF9FEF089590918F0180918E012FEF5F
:100980003FEF981748F4E92FF0E0E756FE4F20813B
:1009900030E09F5F90938F01C9010895CF92DF925D
:1009A000EF92FF920F931F93CF93DF937C01CB01C4
:1009B0008A012091E501222389F0EB016B01C40E2D
:1009C000D51ECC15DD0569F06991D701ED91FC913B
:1009D0000190F081E02DC7010995F3CF642F0E94AB
:1009E0008602C801DF91CF911F910F91FF90EF9088
:1009F000DF90CF900895CF93DF931F92CDB7DEB7EE
:100A000069832091E5012223F9F020910802203228
:100A100058F021E030E0FC013383228390E080E055
:100A20000F90DF91CF9108958091E601E82FF0E0DB
:100A3000E951FE4F998190838F5F8093E601809307
:100A4000080281E090E0ECCF61E0CE0101960E94C7
:100A50008602F7CF90E080E008950F931F93CF9325
:100A6000DF93EC0188819981009759F02A813B81BD
:100A70002617370730F081E0DF91CF911F910F915A
:100A800008958B016F5F7F4F0E949110009759F07E
:100A9000998388831B830A832C813D81232B59F7FB
:100AA000FC011082E8CF80E0E7CFEF92FF920F9336
:100AB0001F93CF93DF936115710541F480E0DF91BF
:100AC000CF911F910F91FF90EF900895411551051F
:100AD000B1F07B01EC010C811D81040F151FB801E1
:100AE0000E942D05882351F3288139818C819D81B5
:100AF000B701820F931F0E9457111D830C8381E061
:100B0000DECF41E050E063E371E00C945505FB015A
:100B100044815581608171810C945505CF93DF9399
:100B2000EC0188819981009711F00E9408101982C8
:100B300018821D821C821B821A82DF91CF91089538
:100B4000CF93DF93EC01FB0101900020E9F731978F
:100B5000AF01461B570B0E945505811103C0CE0102
:100B60000E948E05CE01DF91CF910895EF92FF9202
:100B70000F931F93CF93DF93EC017B018A01BA019E
:100B80000E942D0581110BC0CE010E948E05CE0161
:100B9000DF91CF911F910F91FF90EF9008951D83EA
:100BA0000C83B701888199810E945711F0CFFB0116
:100BB00001900020E9F73197AF01461B570B0C94C9
:100BC000B6050F931F93CF93DF93CDB7DEB7299769
:100BD0000FB6F894DEBF0FBECDBF8C01862FF80193
:100BE0001182108213821282158214824AE0BE01A1
:100BF0006F5F7F4F90E00E94D30BBE016F5F7F4F0E
:100C0000C8010E94D70529960FB6F894DEBF0FBE23
:100C1000CDBFDF91CF911F910F910895FB01DC01B2
:100C200011961C921E9213961C921E921297159664
:100C30001C921E9214978617970749F06081718164
:100C40006115710521F0448155810C94B605089514
:100C5000FC0180819181009711F00C940810089597
:100C600085ED8093BC008091E1019091E201A0911B
:100C7000E301B091E4010796A11DB11D23E0B695F3
:100C8000A795979587952A95D1F72091BC0024FDCB
:100C900003C01092DF0108954091E1015091E201FB
:100CA0006091E3017091E401452B462B472B69F3DA
:100CB0000097A105B10541F02AE22A95F1F700C09D
:100CC0000197A109B109E1CF8091E0010C94CB0219
:100CD0001F920F920FB60F9211242F933F938F9371
:100CE0009F93AF93BF938091910190919201A091B6
:100CF0009301B09194013091900123E0230F2D379F
:100D000058F50196A11DB11D20939001809391018A
:100D100090939201A0939301B093940180919501D7
:100D200090919601A0919701B09198010196A11D13
:100D3000B11D8093950190939601A0939701B09374
:100D40009801BF91AF919F918F913F912F910F90FB
:100D50000FBE0F901F90189526E8230F0296A11D35
:100D6000B11DD2CF1F920F920FB60F9211242F9365
:100D70003F934F935F936F937F938F939F93AF9323
:100D8000BF93EF93FF9389E092E00E94F701FF91F8
:100D9000EF91BF91AF919F918F917F916F915F91F3
:100DA0004F913F912F910F900FBE0F901F9018956C
:100DB0001F920F920FB60F9211242F938F939F9330
:100DC000EF93FF93E0911902F0911A028081E09174
:100DD0001F02F091200282FD1BC0908180912202AF
:100DE0008F5F8F7320912302821741F0E0912202DE
:100DF000F0E0E75FFD4F958F80932202FF91EF9126
:100E00009F918F912F910F900FBE0F901F9018956B
:100E10008081F4CF1F920F920FB60F9211242F935F
:100E20003F934F935F936F937F938F939F93AF9372
:100E3000BF93EF93FF938091B900887F803609F4C8
:100E40004AC0F0F5883209F4A7C018F5803109F4DA
:100E50009BC0B8F4882309F4F9C0883009F494C021
:100E6000FF91EF91BF91AF919F918F917F916F9182
:100E70005F914F913F912F910F900FBE0F901F9058
:100E80001895883109F488C0803251F78093DD01CC
:100E900014C0803409F49DC040F48033B9F3883322
:100EA000F9F68093DD0185ECB0C0803509F485C08A
:100EB000883509F496C0883499F60E943006D0CF60
:100EC000883909F48CC038F5883729F050F4883611
:100ED00011F0803729F683E08093DF0110928901B9
:100EE00057C0883809F47BC0803919F0803809F080
:100EF000B7CF80918901803208F071C0E0918901FB
:100F000081E08E0F809389018091BB00F0E0E7596A
:100F1000FE4F80833DC0803B39F0E0F4803A09F415
:100F200079C0883A09F09CCF84E08093DF01109269
:100F3000680110926701E0918C01F0918D01099593
:100F40008091670181110FC081E080936701109249
:100F5000470109C0803C09F4A6CF883C09F4A3CF1F
:100F6000883B09F07DCFE091680181E08E0F80938E
:100F70006801F0E0E95BFE4F80818093BB009091B7
:100F800068018091670129C08091BA018093BB00FC
:100F900085EC8093BC0064CF9091DC018091DB01F3
:100FA000981758F5E091DC0181E08E0F8093DC0109
:100FB000F0E0E554FE4F8081E9CFE091DC0181E073
:100FC0008E0F8093DC018091BB00F0E0E554FE4F72
:100FD00080839091DC018091DB019817C8F285E84D
:100FE000D8CFE091DC0181E08E0F8093DC0180910D
:100FF000BB00F0E0E554FE4F80838091DE0181115B
:101000005CCF81E08093B90184EA8093BC001092A8
:10101000DF0126CF85EC8093BC001092DF01809128
:101020008901803230F4E0918901F0E0E759FE4F08
:1010300010826091890170E0E0918A01F0918B014A
:1010400089E691E00995109289010ACF1092DD019D
:1010500034CFE9E0F2E01382128288EE93E0A0E060
:10106000B0E084839583A683B78323E131E03183A5
:10107000208325EC30E03587248724EC30E0378767
:10108000268720EC30E0318B208B21EC30E0338B55
:10109000228B22EC30E0358B248B26EC30E0378B32
:1010A000268B118E128E138E148EE6EAF2E01382D6
:1010B000128284839583A683B78385E291E091832E
:1010C000808388E68093B8020895CF93DF93CDB7ED
:1010D000DEB7E3970FB6F894DEBF0FBECDBF7894AE
:1010E00084B5826084BD84B5816084BD85B582602D
:1010F00085BD85B5816085BD80916E0081608093DE
:101100006E00109281008091810082608093810046
:101110008091810081608093810080918000816056
:10112000809380008091B10084608093B1008091B1
:10113000B00081608093B00080917A0084608093D9
:101140007A0080917A00826080937A0080917A00A0
:10115000816080937A0080917A00806880937A0021
:101160001092C100E0911902F0911A0282E080838E
:10117000E0911502F09116021082E0911702F091B1
:1011800018028FEC808310922102E0911D02F091F1
:101190001E0286E08083E0911B02F0911C02808198
:1011A00080618083E0911B02F0911C028081886045
:1011B0008083E0911B02F0911C0280818068808313
:1011C000E0911B02F0911C0280818F7D8083109240
:1011D000E601109208020E94AD0287E791E0909329
:1011E0008D0180938C0188E791E090938B0180932F
:1011F0008A0181E08093E5016091010186EA92E035
:101200000E94FB0460E086EA92E00E94FB04809169
:101210000001809307021092E6011092080260918B
:10122000020186EA92E00E94FB0481E00E94EC0247
:10123000EE24E3949AE0F92E2CE2322E30E0C32E15
:1012400030E0D32E8091B802E092E501809307024E
:101250001092E6011092080260E086EA92E00E9495
:10126000FB0481E00E94EC0267E08091B8020E94DA
:10127000DC0310928F0180938E01873008F452C0F6
:1012800086EA92E00E94BB04982F92959F708F701F
:101290009F9D800D11248093B70286EA92E00E9400
:1012A000BB04982F92959F708F709F9D800D112485
:1012B0008093B60286EA92E00E94BB04982F929532
:1012C0009F708F709F9D800D11248093B50286EAD8
:1012D00092E00E94BB0486EA92E00E94BB04982F31
:1012E00092959F708F709F9D800D11248093B40202
:1012F00086EA92E00E94BB04982F92959F708F70AF
:101300009F9D800D11248093B30286EA92E00E9493
:10131000BB04982F92959F708F709F9D800D112414
:101320008093B2021FA61EA619AA18AA1BAA1AAA5F
:1013300050E040E065E471E0CE018E960E94B60573
:101340008091B4028A3020F4CE018E960E948105ED
:101350006091B402CE0101960E94E105BE016F5F6B
:101360007F4FCE0182960E940E0665E371E0CE01AA
:1013700082960E94A005BC01CE018E960E94870530
:10138000CE0182960E942806CE0101960E94280670
:101390008091B3028A3020F4CE018E960E9481059E
:1013A0006091B302CE0101960E94E105BE016F5F1C
:1013B0007F4FCE0182960E940E0665E371E0CE015A
:1013C00082960E94A005BC01CE018E960E948705E0
:1013D000CE0182960E942806CE0101960E94280620
:1013E0008091B20290E01BA21AA21DA21CA21FA211
:1013F0001EA24AE0BE016F5F7F4F8053984F0E944C
:10140000C80BBE016F5F7F4FCE0182960E94D70549
:10141000BE016E5D7F4FCE0101960E940E0667E30E
:1014200071E0CE0101960E94A005BC01CE018E960E
:101430000E948705CE0101960E942806CE01829661
:101440000E9428061091B50219A618A61BA61AA676
:101450001DA61CA650E040E065E471E0CE01889630
:101460000E94B605111155C169E371E0CE0188965D
:101470000E94D7051CE0612FCE0101960E94E10574
:10148000BE016F5F7F4FCE0182960E940E0661E41F
:1014900071E0CE0182960E94A005BC01CE018E961D
:1014A0000E948705CE0182960E942806CE010196F1
:1014B0000E9428068091B6028A3020F4CE018E96D2
:1014C0000E9481056091B602CE0101960E94E1055D
:1014D000BE016F5F7F4FCE0182960E940E0661E4CF
:1014E00071E0CE0182960E94A005BC01CE018E96CD
:1014F0000E948705CE0182960E942806CE010196A1
:101500000E9428068091B7028A3020F4CE018E9680
:101510000E9481056091B702CE0101960E94E1050B
:10152000BE016F5F7F4FCE018E960E948705CE0170
:1015300001960E942806BE01685D7F4FCE018E96FF
:101540000E948705CE0188960E9428068091B602E7
:1015500090910801891709F44EC080930801809189
:101560000001E092E501809307021092E6011092DB
:1015700008026091030186EA92E00E94FB0480E089
:101580000E94EC0262E0809100010E94DC03109254
:101590008F0180938E01823070F186EA92E00E9482
:1015A000BB04BC01990F880B990B0E94360E609307
:1015B000040170930501809306019093070186EA68
:1015C00092E00E94BB0487FF16C020E030E040E0BC
:1015D0005FE3609104017091050180910601909193
:1015E00007010E94FA0E6093040170930501809335
:1015F00006019093070160910401709105018091AB
:101600000601909107011BA21AA21DA21CA21FA2F3
:101610001EA28E010F5F1F4F22E044E00E94AA0B22
:10162000009709F492C0BC01CE0182960E94D705B2
:101630001A8219821C821B821E821D8238A619A65C
:10164000BE01685D7F4FCE0101960E94D7054EA175
:101650005FA16AA17BA1CE0101960E94550581116F
:1016600004C0CE0101960E948E05BE016F5F7F4FC0
:10167000CE018E960E948705CE0101960E94280613
:10168000CE0182960E9428064AA95BA96EA57FA575
:1016900089E092E00E94790142E050E063E471E069
:1016A00089E092E00E9479010E944B012B013C01EC
:1016B00088EE882E83E0982EA12CB12C0E944B013D
:1016C0006419750986099709683E7340810591057B
:1016D000A8F321E0821A9108A108B10888EE480E0B
:1016E00083E0581E611C711C81149104A104B10493
:1016F00029F7CE018E960E942806C114D10409F460
:10170000A1CD0E94E301882309F49CCD0E94000032
:1017100099CD69E371E01C3060F01C3039F46DE361
:1017200071E0CE0188960E94D705A5CE1C506DE3CE
:1017300071E0CE0188960E94D7051A3008F09BCE42
:10174000CE018E960E94810596CECE0182960E9491
:101750008E056ECFEF920F931F93CF93DF93E80127
:1017600034E047FD34E1042E000C550B57FF03C055
:10177000519541955109E32E022F242FAE010E946D
:10178000ED0BCE01DF91CF911F910F91EF90089556
:10179000BB274A3031F4992322F4BDE2909581951C
:1017A0009F4F0C94D40BBB27FB015527AA27880F0A
:1017B000991FAA1FA41710F0A41B83955051B9F7C5
:1017C000A05DAA3308F0A95DA193009779F7B11144
:1017D000B1931192CB010C94240EA9E0B0E0E3EF99
:1017E000FBE00C94C80E6A01F22EB02E102FFBE322
:1017F000AF2EA01608F41BE31F5F012F27E0AE01F8
:101800004F5F5F4F0E944C0DBC018981982F9970EA
:10181000913009F43FC09BE2E1FC04C09E2D917021
:10182000E0FC3AC05E2D5071E82FE87083FF46C09F
:1018300084E0911101C083E0EF2DE81B8F1508F0C3
:10184000E0E0D6018E2F20E2552351F1992329F0B3
:10185000D6019C93C60101966C0196012D5F3F4F06
:10186000E2FE24C08EE4D6018C9391E411969C9301
:10187000119712968C93D9018E2F90E281111BC083
:10188000E20FF32FF11D10828EEF9FEF2996ECE00F
:101890000C94E40E9DE2C6CF90E2C4CF2D9381500C
:1018A0008111FCCFCE0ED11CE0E0D0CF8EE6D60168
:1018B0008C9391E6DBCF9D938150E0CF482F44700D
:1018C00082FF3DC084E0911101C083E08F1510F4C8
:1018D000EF2DE81BD6018E2F20E2552309F1992325
:1018E00029F0D6019C93C60101966C0196012D5FEB
:1018F0003F4FE2FE1BC089E4D6018C938EE4119623
:101900008C93119786E412968C93D9018E2F90E2D6
:10191000882309F4B5CF9D938150FACF2D93815040
:101920008111FCCFCE0ED11CE0E0D9CF89E6D601E3
:101930008C938EE611968C93119786E6E4CF9B01EB
:1019400077FF02C030E020E0A1E0B0E0911102C0DA
:10195000B0E0A0E0F9013196AE0FBF1F8B2C912CA7
:10196000BB2009F461C05401EFEFAE1ABE0AAA0D04
:10197000BB1DFA161B0619F014F04F2D4A1B51110E
:1019800088C0E3FC59C07601A42FB0E2A1114FC07A
:10199000C40ED11C992309F45BC040E0D601119616
:1019A000F60190836D01552309F448C0012F060FFD
:1019B0009A81582F507184FF03C0913309F401506C
:1019C00010160CF047C0093008F008E0EEE2FE2ED9
:1019D0005B01A01AB10885019194819491082F3F71
:1019E000320729F4D601FC92F60131966F01621795
:1019F000730794F1021713077CF5DB01A21BB30BED
:101A0000AA24A394B12CAC0EBD1EAA0DBB1D119629
:101A10008C9121503109D601119628153905F4F021
:101A2000F60180836D01DBCFB12CA12CA0CFF70193
:101A3000B1937F01A150AACF9111B0CFD601942FBD
:101A400050E302C05D9391509111FCCFC40ED11CA4
:101A500040E0ACCF01E0BACF80E3DBCF6217730781
:101A600031F4963388F4953311F4552369F0F60177
:101A70008083FD01842F90E2811108C0A40FB11D65
:101A80001C9290E080E002CF81E3F1CF91938150EE
:101A9000F3CF911183CF8ACF283008F027E0332786
:101AA000DA01990F311D87FD91600096610571057E
:101AB00039F432602E5F3D9330E32A95E1F70895C3
:101AC0009F3F30F080387105610509F03C5F3C5F55
:101AD0003D93913008F08068911DDF93CF931F9361
:101AE0000F93FF92EF92192F987F9695E92F969575
:101AF0009695E90FFF27EE53FF4F99273327EE24E2
:101B0000FF24A701E70105900894079428F4360FF5
:101B1000E71EF81E491F511D660F771F881F991F6A
:101B20000694A1F70590079428F4E70EF81E491FC4
:101B3000561FC11D770F881F991F661F0694A1F7B6
:101B40000590079428F4F80E491F561FC71FD11D92
:101B5000880F991F661F771F0694A1F705900794B9
:101B600020F4490F561FC71FD81F990F661F771FF4
:101B7000881F0694A9F784911095177041F0D695A7
:101B8000C79557954795F794E7941A95C1F7E8E6F6
:101B9000F0E06894159015913591659195910590B7
:101BA0007FE27395E118F10A430B560BC90BD0097C
:101BB000C0F7E10CF11E431F561FC91FD01D7EF454
:101BC000703311F48A95E6CFE894015030F0080F95
:101BD0000AF40027021708F4202F2395022F7A33E6
:101BE00028F079E37D932A95E9F710C07D932A9533
:101BF00089F6069497956795379517951794E11888
:101C0000F10A430B560BC90BD00998F023957E912E
:101C100073957A3308F070E37C932013B8F77E91C4
:101C200070617D9330F0839571E37D9370E32A9525
:101C3000E1F71124EF90FF900F911F91CF91DF9169
:101C4000992787FD90950895DC01FC01672F71911C
:101C50007723E1F7329704C07C916D937083629192
:101C6000AE17BF07C8F30895E89409C097FB3EF488
:101C700090958095709561957F4F8F4F9F4F9923D9
:101C8000A9F0F92F96E9BB279395F6958795779557
:101C90006795B795F111F8CFFAF4BB0F11F460FF17
:101CA0001BC06F5F7F4F8F4F9F4F16C0882311F06F
:101CB00096E911C0772321F09EE8872F762F05C083
:101CC000662371F096E8862F70E060E02AF09A951E
:101CD000660F771F881FDAF7880F9695879597F913
:101CE000089597F99F6780E870E060E008959FEF9E
:101CF00080EC089500240A941616170618060906A3
:101D0000089500240A941216130614060506089571
:101D1000092E0394000C11F4882352F0BB0F40F4F9
:101D2000BF2B11F460FF04C06F5F7F4F8F4F9F4F39
:101D3000089557FD9058440F551F59F05F3F71F0BB
:101D40004795880F97FB991F61F09F3F79F0879522
:101D50000895121613061406551FF2CF4695F1DFAB
:101D600008C0161617061806991FF1CF869571053B
:101D7000610508940895E894BB2766277727CB016F
:101D800097F908952F923F924F925F926F927F92B0
:101D90008F929F92AF92BF92CF92DF92EF92FF927B
:101DA0000F931F93CF93DF93CDB7DEB7CA1BDB0B27
:101DB0000FB6F894DEBF0FBECDBF09942A883988CC
:101DC00048885F846E847D848C849B84AA84B984D3
:101DD000C884DF80EE80FD800C811B81AA81B981DF
:101DE000CE0FD11D0FB6F894DEBF0FBECDBFED01F3
:101DF00008955058BB27AA270E94110F0C94880EF3
:101E00000E947A0E38F00E94810E20F039F49F3F34
:101E100019F426F40C94770E0EF4E095E7FB0C947D
:101E2000710EE92F0E94990E58F3BA1762077307D3
:101E30008407950720F079F4A6F50C94BB0E0EF4F8
:101E4000E0950B2EBA2FA02D0B01B90190010C01CA
:101E5000CA01A0011124FF27591B99F0593F50F4E2
:101E6000503E68F11A16F040A22F232F342F44273A
:101E7000585FF3CF469537952795A795F040539532
:101E8000C9F77EF41F16BA0B620B730B840BBAF002
:101E90009150A1F0FF0FBB1F661F771F881FC2F76D
:101EA0000EC0BA0F621F731F841F48F48795779581
:101EB0006795B795F7959E3F08F0B0CF9395880F3B
:101EC00008F09927EE0F979587950895EE0FFF1F5D
:101ED0000590F491E02D09940F931F93CF93DF9316
:101EE0008230910510F482E090E0E091BB02F09125
:101EF000BC0230E020E0B0E0A0E0309799F421157A
:101F0000310509F44AC0281B390B24303105D8F5B6
:101F10008A819B816115710589F1FB01938382831D
:101F2000FE0111C040815181028113814817590778
:101F3000E0F04817590799F4109761F012960C9346
:101F4000129713961C933296CF01DF91CF911F9178
:101F50000F9108950093BB021093BC02F4CF21159A
:101F6000310551F04217530738F0A901DB019A01FE
:101F7000BD01DF01F801C1CFEF01F9CF9093BC02A1
:101F80008093BB02CDCFFE01E20FF31F81939193AB
:101F90002250310939832883D7CF2091B90230915B
:101FA000BA02232B41F420910B0130910C013093A4
:101FB000BA022093B9022091090130910A0121153A
:101FC000310541F42DB73EB740910D0150910E01FE
:101FD000241B350BE091B902F091BA02E217F30726
:101FE000A0F42E1B3F0B2817390778F0AC014E5F89
:101FF0005F4F2417350748F04E0F5F1F5093BA020A
:102000004093B902819391939FCFF0E0E0E09CCFA1
:10201000CF93DF930097E9F0FC013297138212828D
:10202000A091BB02B091BC02ED0130E020E010971E
:10203000A1F420813181820F931F2091B902309148
:10204000BA022817390709F061C0F093BA02E09389
:10205000B902DF91CF910895EA01CE17DF07E8F5C5
:102060004A815B819E0141155105B1F7E901FB836E
:10207000EA8349915991C40FD51FEC17FD0761F40C
:10208000808191810296840F951FE901998388834D
:10209000828193819B838A83F0E0E0E012968D91A8
:1020A0009C9113970097B9F52D913C911197CD0113
:1020B0000296820F931F2091B9023091BA0228171D
:1020C000390739F6309751F51092BC021092BB02D5
:1020D000B093BA02A093B902BCCFD383C28340812C
:1020E0005181840F951FC817D90761F44E5F5F4F68
:1020F00088819981480F591F518340838A819B8130
:10210000938382832115310509F0B0CFF093BC028F
:10211000E093BB029ECFFD01DC01C0CF138212828F
:10212000D7CFB0E0A0E0E7E9F0E10C94C40E8C0159
:10213000009751F4CB010E946C0F8C01C801CDB700
:10214000DEB7E0E10C94E00EFC01E60FF71F9C0106
:1021500022503109E217F30708F49DC0D901CD914F
:10216000DC911197C617D70798F0C530D10530F329
:10217000CE0104978617970708F3C61BD70B229743
:10218000C193D1936D937C93CF010E940810D6CF59
:102190005B01AC1ABD0A4C018C0E9D1EA091BB02C6
:1021A000B091BC02512C412CF12CE12C109731F54F
:1021B0008091B9029091BA028815990509F05CC026
:1021C0004616570608F058C08091090190910A01FF
:1021D000009741F48DB79EB740910D0150910E01CB
:1021E000841B950BE817F90708F055C0F093BA0265
:1021F000E093B902F90171836083A0CF8D919C9126
:10220000119712966C90129713967C901397A815BD
:10221000B90559F56C0142E0C40ED11CCA14DB04A7
:1022200020F1AC014A195B09DA011296159780F08A
:102230006282738251834083D9016D937C93E11450
:10224000F10471F0D7011396FC93EE93129776CFB9
:1022500022968C0F9D1FF90191838083F301EFCFAC
:10226000F093BC02E093BB0269CF4816590608F40C
:102270002C017D01D3019ACFCB010E946C0F7C0110
:10228000009749F0AE01B8010E944E11C8010E94AA
:102290000810870153CF10E000E050CFFB01DC01B4
:1022A00002C001900D9241505040D8F70895FB01B3
:1022B000DC0101900D920020E1F70895F894FFCF22
:1022C00048ACEEAA00000000FF0000BD0280000044
:1022D00000000019027901A6016602D701B501C903
:1022E0000100000000FB04CE042A05AB047001BB12
:1022F00004AC0430002F00200020414D0020504D40
:06230000003A000D0A0086
:00000001FF
