:100000000C9458000C9480000C9480000C94800098
:100010000C9480000C9480000C9480000C94800060
:100020000C9480000C9480000C9480000C94800050
:100030000C9480000C9480000C9480000C94800040
:100040000C943A040C9480000C94AA040C9484043C
:100050000C9480000C9480000C9480000C94800020
:100060000C94DC040C9480000000000025002800A3
:100070002B00040404040404040402020202020229
:10008000030303030303010204081020408001025C
:1000900004081020010204081020000000080002DB
:1000A0000100000304070000000000000000FB0541
:1000B00011241FBECFEFD8E0DEBFCDBF22E0A0E409
:1000C000B1E001C01D92A83BB207E1F711E0A0E04A
:1000D000B1E0E0E8F9E102C005900D92A034B1076B
:1000E000D9F710E0C8E5D0E004C02197FE010E94D6
:1000F000C60AC735D107C9F70E9437060C94BE0C53
:100100000C94000090E0FC01E656FF4F2491FC01A6
:10011000EA57FF4F3491FC01EE58FF4FE491EE2374
:10012000C9F0222339F0233001F1A8F4213019F16C
:10013000223029F1F0E0EE0FFF1FE859FF4FA591A3
:10014000B4918FB7F894EC91611126C030953E239D
:100150003C938FBF08952730A9F02830C9F0243090
:1001600049F7809180008F7D03C0809180008F7758
:1001700080938000DFCF84B58F7784BDDBCF84B5DB
:100180008F7DFBCF8091B0008F778093B000D2CF6E
:100190008091B0008F7DF9CF3E2BDACF3FB7F89436
:1001A0008091000290910102A0910202B09103029D
:1001B00026B5A89B05C02F3F19F00196A11DB11DC2
:1001C0003FBFBA2FA92F982F8827BC01CD01620FFE
:1001D000711D811D911D42E0660F771F881F991FB9
:1001E0004A95D1F708958091880190918901891BE2
:1001F000990B089508950895AF92BF92CF92DF9220
:10020000EF92FF920F931F93CF93DF936C017B01CB
:100210008B01040F151FEB015E01AE18BF08C0175C
:10022000D10759F06991D601ED91FC910190F081CF
:10023000E02DC6010995892B79F7C501DF91CF9192
:100240001F910F91FF90EF90DF90CF90BF90AF90F4
:100250000895FC01538D448D252F30E0842F90E0CC
:10026000821B930B541710F0CF96089501970895B1
:10027000FC01918D828D981761F0A28DAE0FBF2F7A
:10028000B11D5D968C91928D9F5F9F73928F90E0D0
:1002900008958FEF9FEF0895FC01918D828D98173F
:1002A00031F0828DE80FF11D858D90E008958FEF7C
:1002B0009FEF0895FC01918D228D892F90E0805C45
:1002C0009F4F821B91098F739927089584E092E0D4
:1002D0000E945A0121E0892B09F420E0822F089521
:1002E00080E090E0892B29F00E94660181110C9436
:1002F00000000895FC01A48DA80FB92FB11DA35AC9
:10030000BF4F2C91848D90E001968F739927848F35
:10031000A689B7892C93A089B1898C918370806458
:100320008C93938D848D981306C00288F389E02DF9
:1003300080818F7D80830895EF92FF920F931F93AA
:10034000CF93DF93EC0181E0888F9B8D8C8D981388
:100350001AC0E889F989808185FF15C09FB7F89494
:10036000EE89FF896083E889F989808183708064E0
:1003700080839FBF81E090E0DF91CF911F910F912B
:10038000FF90EF900895F62E0B8D10E00F5F1F4F3A
:100390000F731127E02E8C8D8E110CC00FB607FC49
:1003A000FACFE889F989808185FFF5CFCE010E94D7
:1003B0007A01F1CFEB8DEC0FFD2FF11DE35AFF4FCA
:1003C000F0829FB7F8940B8FEA89FB898081806265
:1003D000CFCFCF93DF93EC01888D8823B9F0AA8922
:1003E000BB89E889F9898C9185FD03C0808186FDF0
:1003F0000DC00FB607FCF7CF8C9185FFF2CF80813F
:1004000085FFEDCFCE010E947A01E9CFDF91CF9138
:10041000089520916101260F3327331F21323105C2
:10042000ECF42091D001FC0190E080E0243069F0F0
:1004300082E00895A09161012191AC014F5B5E4F74
:10044000A40FB52FB11D2C930196861798F38091B8
:100450006101680F6093610180E0089581E0089573
:100460001092D00181E08093CF011092AA0161E047
:1004700082E10E94820061E083E10E948200E9EB58
:10048000F0E080818E7F808380818D7F808388E40F
:100490008093B80085E48093BC000895CF93DF93E8
:1004A00091E0909340018823B9F0C091B800D091B9
:1004B000BA008091BC008A7B8093BC0060E082E13E
:1004C0000E94820060E083E10E9482000E9430026C
:1004D000D093BA00C093B800DF91CF9108950895EA
:1004E000E091890180918801E81730F4F0E0E65747
:1004F000FE4F808190E008958FEF9FEF08959091D7
:100500008901809188012FEF3FEF981748F4E92F78
:10051000F0E0E657FE4F208130E09F5F9093890125
:10052000C9010895CF92DF92EF92FF920F931F932C
:10053000CF93DF937C01CB018A012091F901222323
:1005400089F0EB016B01C40ED51ECC15DD0569F0F9
:100550006991D701ED91FC910190F081E02DC701E7
:100560000995F3CF642F0E940902C801DF91CF9152
:100570001F910F91FF90EF90DF90CF900895CF9350
:10058000DF931F92CDB7DEB769832091F901222353
:10059000F9F02091F601203258F021E030E0FC0122
:1005A0003383228390E080E00F90DF91CF91089514
:1005B0008091F701E82FF0E0EA52FE4F9981908395
:1005C0008F5F8093F7018093F60181E090E0ECCF9C
:1005D00061E0CE0101960E940902F7CF90E080E031
:1005E0000895FC0101900020E9F73197AF01481B05
:1005F000590BBC0184E092E00C94FC00FC0180816A
:100600009181009711F00C94680B08950F931F933C
:10061000CF93DF93EC0188819981009759F02A816B
:100620003B812617370730F081E0DF91CF911F9192
:100630000F9108958B016F5F7F4F0E94F10B009720
:1006400059F0998388831B830A832C813D81232B56
:1006500059F7FC011082E8CF80E0E7CFEF92FF92DC
:100660000F931F93CF93DF936115710541F480E0E1
:10067000DF91CF911F910F91FF90EF900895411559
:100680005105B1F07B01EC010C811D81040F151F98
:10069000B8010E940603882351F3288139818C8197
:1006A0009D81B701820F931F0E94B70C1D830C839D
:1006B00081E0DECF41E050E06BE271E00C942E036C
:1006C000CF93DF93EC01FB0101900020E9F7319714
:1006D000AF01461B570B0E942E0381110CC088816D
:1006E0009981009711F00E94680B198218821D826F
:1006F0001C821B821A82CE01DF91CF910895FB01EB
:1007000044815581608171810C942E03EF92FF9298
:100710000F931F93CF93DF93EC017B018A01BA0102
:100720000E94060328813981811114C021153105E9
:1007300019F0C9010E94680B198218821D821C825F
:100740001B821A82CE01DF91CF911F910F91FF90F2
:10075000EF9008951D830C83B701C9010E94B70C67
:10076000F1CFFB0101900020E9F73197AF01461B63
:10077000570B0C9486030F931F93CF93DF93CDB742
:10078000DEB729970FB6F894DEBF0FBECDBF8C0140
:10079000862FF80111821082138212821582148230
:1007A0004AE0BE016F5F7F4F90E00E94590ABE0190
:1007B0006F5F7F4FC8010E94B10329960FB6F8946E
:1007C000DEBF0FBECDBFDF91CF911F910F91089576
:1007D000FB01DC0111961C921E9213961C921E9234
:1007E000129715961C921E9214978617970749F038
:1007F000608171816115710521F0448155810C94EE
:100800008603089585ED8093BC008091D20190917C
:10081000D301A091D401B091D5010796A11DB11DBE
:1008200023E0B695A795979587952A95D1F72091BE
:10083000BC0024FD03C01092D00108954091D20164
:100840005091D3016091D4017091D501452B462B75
:10085000472B69F30097A105B10541F02AE22A95DB
:10086000F1F700C00197A109B109E1CF8091D10151
:100870000C944E021F920F920FB60F9211242F93D9
:100880003F938F939F93AF93BF938091FC0190917F
:10089000FD01A091FE01B091FF013091FB0123E029
:1008A000230F2D3758F50196A11DB11D2093FB0193
:1008B0008093FC019093FD01A093FE01B093FF0192
:1008C0008091000290910102A0910202B091030276
:1008D0000196A11DB11D8093000290930102A09387
:1008E0000202B0930302BF91AF919F918F913F910C
:1008F0002F910F900FBE0F901F90189526E8230F91
:100900000296A11DB11DD2CF1F920F920FB60F926A
:1009100011242F933F934F935F936F937F938F9304
:100920009F93AF93BF93EF93FF9384E092E00E9475
:100930007A01FF91EF91BF91AF919F918F917F913C
:100940006F915F914F913F912F910F900FBE0F903C
:100950001F9018951F920F920FB60F9211242F938C
:100960008F939F93EF93FF93E0911402F091150200
:100970008081E0911A02F0911B0282FD1BC09081E0
:1009800080911D028F5F8F7320911E02821741F0AC
:10099000E0911D02F0E0EC5FFD4F958F80931D020A
:1009A000FF91EF919F918F912F910F900FBE0F901C
:1009B0001F9018958081F4CF1F920F920FB60F925F
:1009C00011242F933F934F935F936F937F938F9354
:1009D0009F93AF93BF93EF93FF938091B900887F6C
:1009E000803609F44AC0F0F5883209F4A7C018F53A
:1009F000803109F49BC0B8F4882309F4F9C0883029
:100A000009F494C0FF91EF91BF91AF919F918F91A5
:100A10007F916F915F914F913F912F910F900FBEFA
:100A20000F901F901895883109F488C0803251F7D3
:100A30008093CE0114C0803409F49DC040F480330B
:100A4000B9F38833F9F68093CE0185ECB0C08035D8
:100A500009F485C0883509F496C0883499F60E9457
:100A60000204D0CF883909F48CC038F5883729F0D2
:100A700050F4883611F0803729F683E08093D00156
:100A80001092830157C0883809F47BC0803919F06F
:100A9000803809F0B7CF80918301803208F071C0AF
:100AA000E091830181E08E0F809383018091BB00F0
:100AB000F0E0ED59FE4F80833DC0803B39F0E0F41B
:100AC000803A09F479C0883A09F09CCF84E0809399
:100AD000D0011092620110926101E0918601F091C3
:100AE000870109958091610181110FC081E0809398
:100AF00061011092410109C0803C09F4A6CF883CF5
:100B000009F4A3CF883B09F07DCFE091620181E039
:100B10008E0F80936201F0E0EF5BFE4F8081809347
:100B2000BB00909162018091610129C08091AB016D
:100B30008093BB0085EC8093BC0064CF9091CD0185
:100B40008091CC01981758F5E091CD0181E08E0F8E
:100B50008093CD01F0E0E455FE4F8081E9CFE09134
:100B6000CD0181E08E0F8093CD018091BB00F0E03C
:100B7000E455FE4F80839091CD018091CC01981770
:100B8000C8F285E8D8CFE091CD0181E08E0F809347
:100B9000CD018091BB00F0E0E455FE4F8083809151
:100BA000CF0181115CCF81E08093AA0184EA809318
:100BB000BC001092D00126CF85EC8093BC0010922F
:100BC000D00180918301803230F4E0918301F0E024
:100BD000ED59FE4F10826091830170E0E091840135
:100BE000F091850183E691E00995109283010ACF87
:100BF0001092CE0134CFE4E0F2E01382128288EE4C
:100C000093E0A0E0B0E084839583A683B7832BE0D4
:100C100031E03183208325EC30E03587248724ECD4
:100C200030E03787268720EC30E0318B208B21ECB9
:100C300030E0338B228B22EC30E0358B248B26EC9A
:100C400030E0378B268B118E128E138E148EE1EAD4
:100C5000F2E01382128284839583A683B7838DE1A9
:100C600091E09183808388E68093B3020895CF93C7
:100C7000DF93CDB7DEB7E3970FB6F894DEBF0FBEB4
:100C8000CDBF789484B5826084BD84B5816084BD15
:100C900085B5826085BD85B5816085BD80916E001A
:100CA000816080936E00109281008091810082604B
:100CB0008093810080918100816080938100809188
:100CC00080008160809380008091B1008460809377
:100CD000B1008091B00081608093B00080917A0073
:100CE000846080937A0080917A00826080937A0099
:100CF00080917A00816080937A0080917A00806888
:100D000080937A001092C100E0911402F0911502D4
:100D100082E08083E0911002F09111021082E09154
:100D20001202F09113028FEC808310921C02E0916A
:100D30001802F091190286E08083E0911602F0918A
:100D40001702808180618083E0911602F091170282
:100D5000808188608083E0911602F0911702808183
:100D600080688083E0911602F091170280818F7D68
:100D7000808310928901109288010E9430028AEFCC
:100D800090E090938701809386018BEF90E09093A1
:100D900085018093840140E0A42E40E0B42E52E00F
:100DA000352E11E095EE992E25EC822E36E0232E7D
:100DB000F090B3021093F901F092F8011092F7014C
:100DC0001092F60160E081EA92E00E94BF02009179
:100DD000F601013208F08EC00E94CE002B013C01CA
:100DE0008091D001811161C03092D0011093CF0168
:100DF0002FEF2093CE011092CD010093CC01A6EDF0
:100E0000B1E0ECEAF1E00813E9C01092AB01809187
:100E1000AB01FF0CF82AF092AB018091AA0181305E
:100E200009F0E0C01092AA010E94CE006B017C0183
:100E30008091AB018093BB008091D2019091D3014E
:100E4000A091D401B091D501892B8A2B8B2B99F0DD
:100E50000E94CE004090D2015090D3016090D40106
:100E60007090D5016C197D098E099F0946165706A9
:100E700068067906D8F18091BC0083FDD9CF8092B5
:100E8000BC000E94CE006B017C018091D0018230B9
:100E900009F4ABC08091CE018F3F61F18091CE010A
:100EA000803241F18091CE0125C08091D201909194
:100EB000D301A091D401B091D501892B8A2B8B2B22
:100EC00009F48ECF0E94CE002091D2013091D3013F
:100ED0004091D4015091D50164197509860997098B
:100EE000261737074807590708F07ACF8091D101B4
:100EF0000E944E021092F7011092F6011092F90131
:100F0000F090B3020E94CE002B013C018091D001F1
:100F100081118DC01093D0011093CF018FEF80937A
:100F2000CE011092CD012092CC011093AB018091A3
:100F3000AB01FF0CF82AF092AB018091AA0181303D
:100F400009F069C21092AA010E94CE006B017C01D7
:100F50008091AB018093BB008091D2019091D3012D
:100F6000A091D401B091D501892B8A2B8B2BA1F0B4
:100F70000E94CE004090D2015090D3016090D401E5
:100F80007090D5016C197D098E099F094616570688
:100F90006806790608F46CC08091BC0083FDD8CF48
:100FA0008092BC000E94CE006B017C018091D00138
:100FB000813009F433C28091CD01873008F050C2EE
:100FC0008091CD01ECEAF1E0AAE8B1E090E0981759
:100FD00009F453C021912D939F5FF9CF9D91919377
:100FE0008F5F11CF9092BC004CCF8091D201909135
:100FF000D301A091D401B091D501892B8A2B8B2BE1
:1010000009F443CF0E94CE004090D2015090D3010A
:101010006090D4017090D5016C197D098E099F09EB
:10102000461657066806790608F02FCF5FCF8091E5
:10103000D2019091D301A091D401B091D501892B17
:101040008A2B8B2B09F462CF0E94CE002091D20113
:101050003091D3014091D4015091D50164197509A3
:1010600086099709261737074807590708F04ECF12
:101070008091D1010E944E0280E0109289018093FC
:101080008801873008F453C081EA92E00E947F0211
:10109000982F92959F700AE08F70909F800D112479
:1010A0008093B20281EA92E00E947F02982F92958B
:1010B0009F708F70909F800D11248093B10281EA00
:1010C00092E00E947F02982F92959F708F70909F60
:1010D000800D11248093B00281EA92E00E947F0289
:1010E00081EA92E00E947F02982F92959F708F7004
:1010F000909F800D11248093AF0281EA92E00E94BC
:101100007F02982F92959F708F70909F800D112471
:101110008093AE0281EA92E00E947F02982F92951E
:101120009F708F70909F800D11248093AD028091ED
:10113000B20290910001891709F43DC1809300012A
:101140001FA61EA619AA18AA1BAA1AAA50E040E0B8
:101150006FE371E0CE018E960E9486038091AF020C
:101160008A3020F4CE018E960E945A036091AF021D
:10117000CE0101960E94BB03BE016F5F7F4FCE017F
:1011800082960E94E8036DE271E0CE0182960E9491
:101190006003BC01CE018E960E947F03CE01829631
:1011A0000E94FE02CE0101960E94FE028091AE02D4
:1011B0008A3020F4CE018E960E945A036091AE02CE
:1011C000CE0101960E94BB03BE016F5F7F4FCE012F
:1011D00082960E94E8036DE271E0CE0182960E9441
:1011E0006003BC01CE018E960E947F03CE018296E1
:1011F0000E94FE02CE0101960E94FE028091AD0285
:1012000090E01BA21AA21DA21CA21FA21EA24AE0CD
:10121000BE016F5F7F4F8053984F0E944E0ABE0100
:101220006F5F7F4FCE0182960E94B103BE016E5D5B
:101230007F4FCE0101960E94E8036FE271E0CE017C
:1012400001960E946003BC01CE018E960E947F032E
:10125000CE0101960E94FE02CE0182960E94FE02FD
:101260000091B00219A618A61BA61AA61DA61CA6B8
:1012700050E040E06FE371E0CE0188960E94860363
:101280000111F0C061E371E0CE0188960E94B103C4
:101290000CE0602FCE0101960E94BB03BE016F5F80
:1012A0007F4FCE0182960E94E80369E371E0CE0190
:1012B00082960E946003BC01CE018E960E947F033D
:1012C000CE0182960E94FE02CE0101960E94FE028D
:1012D0008091B1028A3020F4CE018E960E945A038A
:1012E0006091B102CE0101960E94BB03BE016F5F07
:1012F0007F4FCE0182960E94E80369E371E0CE0140
:1013000082960E946003BC01CE018E960E947F03EC
:10131000CE0182960E94FE02CE0101960E94FE023C
:101320008091B2028A3020F4CE018E960E945A0338
:101330006091B202CE0101960E94BB03BE016F5FB5
:101340007F4FCE018E960E947F03CE0101960E94B0
:10135000FE02BE01685D7F4FCE018E960E947F0324
:10136000CE0188960E94FE028091FA018F5F65E0AF
:101370000E94BA0AF92E9093FA014AA95BA96EA5B8
:101380007FA584E092E00E94FC008BE391E00E9444
:10139000F10219A281E0F11080E0805D88A3CE0106
:1013A00080960E94F1028DE391E00E94F102CE014D
:1013B0008E960E94FE020E94CE002B013C0182E329
:1013C000C82ED12CE12CF12C0E94CE006419750995
:1013D00086099709683E734081059105A8F321E0CD
:1013E000C21AD108E108F10888EE480E83E0581EC1
:1013F000611C711CC114D104E104F10429F7A1148A
:10140000B10409F4D5CC0E946601882309F4C9CC43
:101410000E940000C6CC9092BC00C4CD8091D20145
:101420009091D301A091D401B091D501892B8A2B41
:101430008B2B09F4BBCD0E94CE004090D20150907E
:10144000D3016090D4017090D5016C197D098E098B
:101450009F09461657066806790608F0A7CD08CEFC
:1014600087E0B0CD61E371E00C3060F00C3039F40E
:1014700065E371E0CE0188960E94B1030ACF0C505B
:1014800065E371E0CE0188960E94B1030A3008F04E
:1014900000CFCE018E960E945A03FBCEBB274A3066
:1014A00031F4992322F4BDE2909581959F4F0C94DD
:1014B0005A0ABB27FB015527AA27880F991FAA1F85
:1014C000A41710F0A41B83955051B9F7A05DAA335F
:1014D00008F0A95DA193009779F7B111B19311922A
:1014E000CB010C94730ADC01FC01672F7191772307
:1014F000E1F7329704C07C916D9370836291AE17CF
:10150000BF07C8F308952F923F924F925F926F9258
:101510007F928F929F92AF92BF92CF92DF92EF9283
:10152000FF920F931F93CF93DF93CDB7DEB7CA1B04
:10153000DB0B0FB6F894DEBF0FBECDBF09942A882F
:10154000398848885F846E847D848C849B84AA84D7
:10155000B984C884DF80EE80FD800C811B81AA8164
:10156000B981CE0FD11D0FB6F894DEBF0FBECDBF2F
:10157000ED010895991B79E004C0991F961708F0B2
:10158000961B881F7A95C9F780950895EE0FFF1F67
:101590000590F491E02D09940F931F93CF93DF935F
:1015A0008230910510F482E090E0E091B602F09173
:1015B000B70230E020E0B0E0A0E0309799F42115C8
:1015C000310509F44AC0281B390B24303105D8F500
:1015D0008A819B816115710589F1FB019383828367
:1015E000FE0111C0408151810281138148175907C2
:1015F000E0F04817590799F4109761F012960C9390
:10160000129713961C933296CF01DF91CF911F91C1
:101610000F9108950093B6021093B702F4CF2115ED
:10162000310551F04217530738F0A901DB019A0147
:10163000BD01DF01F801C1CFEF01F9CF9093B702EF
:101640008093B602CDCFFE01E20FF31F81939193F9
:101650002250310939832883D7CF2091B4023091A9
:10166000B502232B41F42091030130910401309302
:10167000B5022093B402209101013091020121159D
:10168000310541F42DB73EB7409105015091060157
:10169000241B350BE091B402F091B502E217F30779
:1016A000A0F42E1B3F0B2817390778F0AC014E5FD2
:1016B0005F4F2417350748F04E0F5F1F5093B50258
:1016C0004093B402819391939FCFF0E0E0E09CCFF0
:1016D000CF93DF930097E9F0FC01329713821282D7
:1016E000A091B602B091B702ED0130E020E0109772
:1016F000A1F420813181820F931F2091B402309197
:10170000B5022817390709F061C0F093B502E093DC
:10171000B402DF91CF910895EA01CE17DF07E8F513
:101720004A815B819E0141155105B1F7E901FB83B7
:10173000EA8349915991C40FD51FEC17FD0761F455
:10174000808191810296840F951FE9019983888396
:10175000828193819B838A83F0E0E0E012968D91F1
:101760009C9113970097B9F52D913C911197CD015C
:101770000296820F931F2091B4023091B502281770
:10178000390739F6309751F51092B7021092B60228
:10179000B093B502A093B402BCCFD383C28340817F
:1017A0005181840F951FC817D90761F44E5F5F4FB1
:1017B00088819981480F591F518340838A819B8179
:1017C000938382832115310509F0B0CFF093B702DE
:1017D000E093B6029ECFFD01DC01C0CF13821282DE
:1017E000D7CFB0E0A0E0E7EFFBE00C94850A8C01D6
:1017F000009751F4CB010E94CC0A8C01C801CDB7EF
:10180000DEB7E0E10C94A10AFC01E60FF71F9C0192
:1018100022503109E217F30708F49DC0D901CD9198
:10182000DC911197C617D70798F0C530D10530F372
:10183000CE0104978617970708F3C61BD70B22978C
:10184000C193D1936D937C93CF010E94680BD6CF47
:101850005B01AC1ABD0A4C018C0E9D1EA091B60214
:10186000B091B702512C412CF12CE12C109731F59D
:101870008091B4029091B5028815990509F05CC079
:101880004616570608F058C0809101019091020158
:10189000009741F48DB79EB7409105015091060124
:1018A000841B950BE817F90708F055C0F093B502B3
:1018B000E093B402F90171836083A0CF8D919C9174
:1018C000119712966C90129713967C901397A81507
:1018D000B90559F56C0142E0C40ED11CCA14DB04F1
:1018E00020F1AC014A195B09DA011296159780F0D4
:1018F0006282738251834083D9016D937C93E1149A
:10190000F10471F0D7011396FC93EE93129776CF02
:1019100022968C0F9D1FF90191838083F301EFCFF5
:10192000F093B702E093B60269CF4816590608F45F
:101930002C017D01D3019ACFCB010E94CC0A7C01FE
:10194000009749F0AE01B8010E94AE0CC8010E9498
:10195000680B870153CF10E000E050CFFB01DC01A2
:1019600002C001900D9241505040D8F70895FB01FC
:10197000DC0101900D920020E1F70895F894FFCF6B
:10198000FF0000B8028000000000009C01FC00295C
:1019900001E9015A0138014C0100000000BF029228
:1019A00002EE026F02F3007F02700230002F00206F
:1019B0000020414D0020504D003A002C000D0A003F
:00000001FF
