:020000040000FA
:100000000C9458000C9480000C9480000C94800098
:100010000C9480000C9480000C9480000C94800060
:100020000C9480000C9480000C9480000C94800050
:100030000C9480000C9480000C9480000C94800040
:100040000C9439050C9480000C94A9050C9483053C
:100050000C9480000C9480000C9480000C94800020
:100060000C94DB050C9480000000000025002800A3
:100070002B00040404040404040402020202020229
:10008000030303030303010204081020408001025C
:1000900004081020010204081020000000080002DB
:1000A0000100000304070000000000000000FA0641
:1000B00011241FBECFEFD8E0DEBFCDBF22E0A0E607
:1000C000B1E001C01D92A73DB207E1F711E0A0E049
:1000D000B1E0E8E6F1E202C005900D92A036B1076A
:1000E000D9F710E0C8E5D0E004C02197FE010E94D6
:1000F0000C0CC735D107C9F70E9436070C94B21013
:100100000C94000090E0FC01E656FF4F2491FC01A6
:10011000EA57FF4F3491FC01EE58FF4FE491EE2374
:10012000C9F0222339F0233001F1A8F4213019F16C
:10013000223029F1F0E0EE0FFF1FE859FF4FA591A3
:10014000B4918FB7F894EC91611126C030953E239D
:100150003C938FBF08952730A9F02830C9F0243090
:1001600049F7809180008F7D03C0809180008F7758
:1001700080938000DFCF84B58F7784BDDBCF84B5DB
:100180008F7DFBCF8091B0008F778093B000D2CF6E
:100190008091B0008F7DF9CF3E2BDACF3FB7F89436
:1001A0008091AF019091B001A091B101B091B201E5
:1001B00026B5A89B05C02F3F19F00196A11DB11DC2
:1001C0003FBFBA2FA92F982F8827BC01CD01620FFE
:1001D000711D811D911D42E0660F771F881F991FB9
:1001E0004A95D1F708958091A8019091A901891BA2
:1001F000990B089508950895AF92BF92CF92DF9220
:10020000EF92FF920F931F93CF93DF936C017B01CB
:100210008B01040F151FEB015E01AE18BF08C0175C
:10022000D10759F06991D601ED91FC910190F081CF
:10023000E02DC6010995892B79F7C501DF91CF9192
:100240001F910F91FF90EF90DF90CF90BF90AF90F4
:100250000895FC01538D448D252F30E0842F90E0CC
:10026000821B930B541710F0CF96089501970895B1
:10027000FC01918D828D981761F0A28DAE0FBF2F7A
:10028000B11D5D968C91928D9F5F9F73928F90E0D0
:1002900008958FEF9FEF0895FC01918D828D98173F
:1002A00031F0828DE80FF11D858D90E008958FEF7C
:1002B0009FEF0895FC01918D228D892F90E0805C45
:1002C0009F4F821B91098F739927089583E292E0D3
:1002D0000E945A0121E0892B09F420E0822F089521
:1002E00080E090E0892B29F00E94660181110C9436
:1002F00000000895FC01A48DA80FB92FB11DA35AC9
:10030000BF4F2C91848D90E001968F739927848F35
:10031000A689B7892C93A089B1898C918370806458
:100320008C93938D848D981306C00288F389E02DF9
:1003300080818F7D80830895EF92FF920F931F93AA
:10034000CF93DF93EC0181E0888F9B8D8C8D981388
:100350001AC0E889F989808185FF15C09FB7F89494
:10036000EE89FF896083E889F989808183708064E0
:1003700080839FBF81E090E0DF91CF911F910F912B
:10038000FF90EF900895F62E0B8D10E00F5F1F4F3A
:100390000F731127E02E8C8D8E110CC00FB607FC49
:1003A000FACFE889F989808185FFF5CFCE010E94D7
:1003B0007A01F1CFEB8DEC0FFD2FF11DE35AFF4FCA
:1003C000F0829FB7F8940B8FEA89FB898081806265
:1003D000CFCFCF93DF93EC01888D8823B9F0AA8922
:1003E000BB89E889F9898C9185FD03C0808186FDF0
:1003F0000DC00FB607FCF7CF8C9185FFF2CF80813F
:1004000085FFEDCFCE010E947A01E9CFDF91CF9138
:10041000089520918101260F3327331F21323105A2
:10042000ECF42091F901FC0190E080E0243069F0C7
:1004300082E00895A09181012191AC014F595E4F56
:10044000A40FB52FB11D2C930196861798F38091B8
:100450008101680F6093810180E0089581E0089533
:100460001092F90181E08093F8011092D30161E0CC
:1004700082E10E94820061E083E10E948200E9EB58
:10048000F0E080818E7F808380818D7F808388E40F
:100490008093B80085E48093BC000895CF93DF93E8
:1004A00091E0909360018823B9F0C091B800D09199
:1004B000BA008091BC008A7B8093BC0060E082E13E
:1004C0000E94820060E083E10E9482000E9430026C
:1004D000D093BA00C093B800DF91CF9108958F9266
:1004E0009F92AF92BF92CF92DF92EF92FF920F93C3
:1004F0001F93CF93DF93D0912202D13208F0D7C05F
:10050000182FC09121020E94CE006B017C018091C6
:10051000F90181116BC082E08093F9011093F80119
:100520008FEF8093F7011092F601D093F501A1E0CF
:10053000B2E0E5EDF1E080E0D81391C01092D40173
:100540008091D401CC0FC82BC093D4018091D301EA
:10055000813009F088C01092D3010E94CE006B0157
:100560007C018091D4018093BB008091FB0190912C
:10057000FC01A091FD01B091FE01892B8A2B8B2BF0
:10058000A1F00E94CE000091FB011091FC0120918E
:10059000FD013091FE016C197D098E099F09061736
:1005A00017072807390708F442C08091BC0083FD73
:1005B000D8CF85EC8093BC000E94CE006B017C01FB
:1005C0008091F901823009F450C08091F7018F3F8A
:1005D00009F46FC08091F701803209F46CC08091FA
:1005E000F701803309F469C084E026C08091FB01E3
:1005F0009091FC01A091FD01B091FE01892B8A2B05
:100600008B2B09F484CF0E94CE008090FB01909048
:10061000FC01A090FD01B090FE016C197D098E09CE
:100620009F0986169706A806B90608F070CF809134
:10063000FA010E944E0285E01092000210922202FE
:100640001092FF01DF91CF911F910F91FF90EF90DA
:10065000DF90CF90BF90AF909F908F9008959D9125
:1006600091938F5F69CF85EEA5CF8091FB0190912B
:10067000FC01A091FD01B091FE01892B8A2B8B2BEF
:1006800009F49ECF0E94CE000091FB011091FC0165
:100690002091FD013091FE016C197D098E099F09A1
:1006A000061717072807390708F08ACFC0CF81E05F
:1006B000C3CF80E0C1CF82E0BFCF83E0BDCFCF9278
:1006C000DF92EF92FF920F931F93CF93DF93D82F78
:1006D000C62F613208F098C00E94CE006B017C01E9
:1006E0008091F90181116BC081E08093F9018093C1
:1006F000F8019FEF9093F7011092F6019C0F9093F1
:10070000F5018093D4018091D401DD0FD82BD093D3
:10071000D4018091D301813009F078C01092D301C7
:100720000E94CE006B017C018091D4018093BB00BC
:100730008091FB019091FC01A091FD01B091FE011F
:10074000892B8A2B8B2BA1F00E94CE000091FB01FC
:100750001091FC012091FD013091FE016C197D0981
:100760008E099F09061717072807390708F448C09C
:100770008091BC0083FDD8CF85EC8093BC000E94A3
:10078000CE006B017C018091F901813009F440C0F9
:100790008091F6018C1710F4C091F601E5EDF1E0BF
:1007A000A3EBB1E080E08C1355C08C2FDF91CF918B
:1007B0001F910F91FF90EF90DF90CF90089580915F
:1007C000FB019091FC01A091FD01B091FE01892BEC
:1007D0008A2B8B2B09F484CF0E94CE000091FB0161
:1007E0001091FC012091FD013091FE016C197D09F1
:1007F0008E099F09061717072807390708F070CFD9
:100800008091FA010E944E02C0E0CFCF85EEB5CFB5
:100810008091FB019091FC01A091FD01B091FE013E
:10082000892B8A2B8B2B09F4AECF0E94CE0000912E
:10083000FB011091FC012091FD013091FE016C192A
:100840007D098E099F09061717072807390708F041
:100850009ACFD6CF91919D938F5FA5CF0895E091C8
:10086000A9018091A801E81730F4F0E0ED54FE4FA3
:10087000808190E008958FEF9FEF08959091A901F6
:100880008091A8012FEF3FEF981748F4E92FF0E08F
:10089000ED54FE4F208130E09F5F9093A901C90184
:1008A0000895CF92DF92EF92FF920F931F93CF9311
:1008B000DF937C01CB018A012091FF01222389F083
:1008C000EB016B01C40ED51ECC15DD0569F06991F5
:1008D000D701ED91FC910190F081E02DC7010995C0
:1008E000F3CF642F0E940902C801DF91CF911F91BD
:1008F0000F91FF90EF90DF90CF900895CF93DF930B
:100900001F92CDB7DEB769832091FF012223F9F052
:1009100020912202203258F021E030E0FC013383A4
:10092000228390E080E00F90DF91CF910895809135
:100930000002E82FF0E0EF5FFD4F998190838F5F19
:10094000809300028093220281E090E0ECCF61E08E
:10095000CE0101960E940902F7CF90E080E0089551
:10096000FC0101900020E9F73197AF01481B590BBA
:10097000BC0183E292E00C94FC008F929F92AF92B4
:10098000BF920F931F93CF93DF93CDB7DEB7A1979D
:100990000FB6F894DEBF0FBECDBF19A2423008F4E7
:1009A0004AE08E010F5D1F4F842E912CB12CA12C9B
:1009B000A50194010E94EA0BE62FB901CA01EA30B1
:1009C000F4F4E05DD801EE938D01232B242B252B2D
:1009D00079F790E080E0109719F0CD010E94B00403
:1009E000A1960FB6F894DEBF0FBECDBFDF91CF91B9
:1009F0001F910F91BF90AF909F908F900895E95CE9
:100A0000E1CF85ED8093BC008091FB019091FC01CA
:100A1000A091FD01B091FE010796A11DB11D23E03B
:100A2000B695A795979587952A95D1F72091BC0003
:100A300024FD03C01092F90108954091FB015091EB
:100A4000FC016091FD017091FE01452B462B472B67
:100A500069F30097A105B10541F02AE22A95F1F763
:100A600000C00197A109B109E1CF8091FA010C946E
:100A70004E021F920F920FB60F9211242F933F93A5
:100A80008F939F93AF93BF938091AB019091AC01F3
:100A9000A091AD01B091AE013091AA0123E0230FE6
:100AA0002D3758F50196A11DB11D2093AA01809301
:100AB000AB019093AC01A093AD01B093AE018091D6
:100AC000AF019091B001A091B101B091B201019636
:100AD000A11DB11D8093AF019093B001A093B1010E
:100AE000B093B201BF91AF919F918F913F912F91A0
:100AF0000F900FBE0F901F90189526E8230F0296B7
:100B0000A11DB11DD2CF1F920F920FB60F921124CB
:100B10002F933F934F935F936F937F938F939F9305
:100B2000AF93BF93EF93FF9383E292E00E947A0129
:100B3000FF91EF91BF91AF919F918F917F916F91B5
:100B40005F914F913F912F910F900FBE0F901F908B
:100B500018951F920F920FB60F9211242F938F9317
:100B60009F93EF93FF93E0913302F09134028081E1
:100B7000E0913902F0913A0282FD1BC09081809190
:100B80003C028F5F8F7320913D02821741F0E0910C
:100B90003C02F0E0ED5DFD4F958F80933C02FF91AC
:100BA000EF919F918F912F910F900FBE0F901F90FB
:100BB00018958081F4CF1F920F920FB60F921124D7
:100BC0002F933F934F935F936F937F938F939F9355
:100BD000AF93BF93EF93FF938091B900887F8036E6
:100BE00009F44AC0F0F5883209F4A7C018F580313D
:100BF00009F49BC0B8F4882309F4F9C0883009F4DB
:100C000094C0FF91EF91BF91AF919F918F917F9190
:100C10006F915F914F913F912F910F900FBE0F9069
:100C20001F901895883109F488C0803251F780935D
:100C3000F70114C0803409F49DC040F48033B9F347
:100C40008833F9F68093F70185ECB0C0803509F45C
:100C500085C0883509F496C0883499F60E9401054C
:100C6000D0CF883909F48CC038F5883729F050F492
:100C7000883611F0803729F683E08093F9011092CD
:100C8000A30157C0883809F47BC0803919F0803837
:100C900009F0B7CF8091A301803208F071C0E091D4
:100CA000A30181E08E0F8093A3018091BB00F0E04F
:100CB000ED57FE4F80833DC0803B39F0E0F4803A31
:100CC00009F479C0883A09F09CCF84E08093F90157
:100CD0001092820110928101E091A601F091A7018A
:100CE00009958091810181110FC081E0809381017C
:100CF0001092610109C0803C09F4A6CF883C09F438
:100D0000A3CF883B09F07DCFE091820181E08E0F77
:100D100080938201F0E0EF59FE4F80818093BB0009
:100D2000909182018091810129C08091D4018093AA
:100D3000BB0085EC8093BC0064CF9091F60180915C
:100D4000F501981758F5E091F60181E08E0F809338
:100D5000F601F0E0EB52FE4F8081E9CFE091F60121
:100D600081E08E0F8093F6018091BB00F0E0EB52A2
:100D7000FE4F80839091F6018091F5019817C8F29B
:100D800085E8D8CFE091F60181E08E0F8093F601DF
:100D90008091BB00F0E0EB52FE4F80838091F80120
:100DA00081115CCF81E08093D30184EA8093BC0001
:100DB0001092F90126CF85EC8093BC001092F901C6
:100DC0008091A301803230F4E091A301F0E0ED576F
:100DD000FE4F10826091A30170E0E091A401F091B8
:100DE000A50183E891E009951092A3010ACF109222
:100DF000F70134CFE3E2F2E01382128288EE93E04F
:100E0000A0E0B0E084839583A683B78323E131E03B
:100E10003183208325EC30E03587248724EC30E0D3
:100E20003787268720EC30E0318B208B21EC30E0B7
:100E3000338B228B22EC30E0358B248B26EC30E098
:100E4000378B268B118E128E138E148EE0ECF2E00F
:100E50001382128284839583A683B78385E291E00F
:100E60009183808388E68093D2020895CF93DF93A5
:100E7000CDB7DEB7A0970FB6F894DEBF0FBECDBFDB
:100E8000789484B5826084BD84B5816084BD85B565
:100E9000826085BD85B5816085BD80916E00816071
:100EA00080936E0010928100809181008260809317
:100EB0008100809181008160809381008091800019
:100EC0008160809380008091B10084608093B10044
:100ED0008091B00081608093B00080917A0084603E
:100EE00080937A0080917A00826080937A0080916A
:100EF0007A00816080937A0080917A008068809384
:100F00007A001092C100E0913302F091340282E045
:100F10008083E0912F02F09130021082E091310243
:100F2000F09132028FEC808310923B02E091370205
:100F3000F091380286E08083E0913502F09136022C
:100F4000808180618083E0913502F091360280815A
:100F500088608083E0913502F0913602808180685C
:100F60008083E0913502F091360280818F7D80830D
:100F700010920002109222020E9430028AEF90E04A
:100F80009093A7018093A6018BEF90E09093A50129
:100F90008093A40181E08093FF016091010180ECC6
:100FA00092E00E947E0460E080EC92E00E947E0469
:100FB000809100018093210210920002109222027F
:100FC0006091020180EC92E00E947E0481E00E9428
:100FD0006F02662463949AE0792E23E3A22E21E027
:100FE000B22E8E010F5F1F4F30E0832E30E0932E24
:100FF0008091D2026092FF01809321021092000240
:101000001092220260E080EC92E00E947E0481E077
:101010000E946F0267E08091D2020E945F031092EB
:10102000A9018093A801873008F452C080EC92E0B7
:101030000E943E04982F92959F708F70979D800D0F
:1010400011248093D10280EC92E00E943E04982FFC
:1010500092959F708F70979D800D11248093D00280
:1010600080EC92E00E943E04982F92959F708F70C2
:10107000979D800D11248093CF0280EC92E00E9416
:101080003E0480EC92E00E943E04982F92959F705F
:101090008F70979D800D11248093CE0280EC92E09A
:1010A0000E943E04982F92959F708F70979D800D9F
:1010B00011248093CD0280EC92E00E943E04982F90
:1010C00092959F708F70979D800D11248093CC0214
:1010D0008091D00290910801891709F44EC0809345
:1010E0000801809100016092FF018093210210921B
:1010F0000002109222026091030180EC92E00E94B3
:101100007E0480E00E946F0262E0809100010E94F4
:101110005F031092A9018093A801823070F180ECE6
:1011200092E00E943E04BC01990F880B990B0E942B
:10113000F009609304017093050180930601909378
:10114000070180EC92E00E943E0487FF16C020E079
:1011500030E040E05FE3609104017091050180910F
:101160000601909107010E94450B60930401709362
:10117000050180930601909307018091D1021F928F
:101180008F938091D0021F928F938091CF021F92F4
:101190008F938091CE021F928F938091CD021F92E8
:1011A0008F938091CC021F928F93BF92AF921F9228
:1011B00020E22F931F930F930E94040EF8010190D9
:1011C0000020E9F731977F01E01AF10AB7016F5F5C
:1011D0007F4F90E080E00E94370D6C010FB6F894CD
:1011E000DEBF0FBECDBF009709F45EC0FC011082C8
:1011F000B8010E94FD0DA701B60183E292E00E94B2
:10120000FC0081E591E00E94B004C114D10419F002
:10121000C6010E94AE0CC0900401D0900501E09080
:101220000601F0900701A7019601C701B6010E94CF
:10123000E50B8823E1F184E591E00E94B00481E5AB
:1012400091E00E94B0040E94CE001B012C0188EEA8
:10125000C82E83E0D82EE12CF12C0E94CE0062191A
:10126000730984099509683E734081059105A8F3C7
:10127000F1E0CF1AD108E108F10828EE220E23E0B0
:10128000321E411C511CC114D104E104F10429F7A0
:101290008114910409F4ACCE0E946601882309F4FC
:1012A000A7CE0E940000A4CEF12CE12CA4CF160101
:1012B0002701E89457F82FEF3FEF4FE75FE7C201B0
:1012C000B1010E94E50B81110DC02FEF3FEF4FE7F9
:1012D0005FE7C201B1010E94E90918161CF488E514
:1012E00091E0ABCF2FEF3FEF4FE75FE4C701B601CF
:1012F0000E94E00B18161CF48CE591E09ECF2FEFB6
:101300003FEF4FE75FECC701B6010E94E90987FD97
:10131000F3CF20E030E0A901C701B6010E94E9093E
:1013200087FF09C06DE283E292E00E949C01F7FA18
:10133000F094F7F8F0942AE037ED43EA5BE3C70155
:10134000B6010E94450B1B012C010E94B10B6B01E1
:101350007C010E94EE099B01AC01C201B1010E9417
:10136000440B1B012C014AE0C701B6010E94BD04D9
:101370006EE283E292E00E949C0120E030E040E2D5
:1013800051E4C201B1010E944F0A1B012C010E94CD
:10139000B10B6B01F12CE12C4AE0C701B6010E94B0
:1013A000BD04C701B6010E94EE099B01AC01C20158
:1013B000B1010E94440B20E030E040E251E40E9481
:1013C0004F0A0E94B10B90E080E04AE00E94BD0409
:1013D00036CF0E942B0A08F481E00895E89409C0F2
:1013E00097FB3EF490958095709561957F4F8F4F58
:1013F0009F4F9923A9F0F92F96E9BB279395F6956E
:10140000879577956795B795F111F8CFFAF4BB0FEB
:1014100011F460FF1BC06F5F7F4F8F4F9F4F16C04F
:10142000882311F096E911C0772321F09EE8872FD9
:10143000762F05C0662371F096E8862F70E060E095
:101440002AF09A95660F771F881FDAF7880F96950E
:10145000879597F90895990F0008550FAA0BE0E8B2
:10146000FEEF16161706E807F907C0F01216130666
:10147000E407F50798F0621B730B840B950B39F4A6
:101480000A2661F0232B242B252B21F408950A260C
:1014900009F4A140A6958FEF811D811D08950E943A
:1014A000620A0C94D30A0E94C50A38F00E94CC0A42
:1014B00020F0952311F00C94BC0A0C94C20A11245C
:1014C0000C94070B0E94E40A70F3959FC1F3950FEB
:1014D00050E0551F629FF001729FBB27F00DB11DB8
:1014E000639FAA27F00DB11DAA1F649F6627B00D48
:1014F000A11D661F829F2227B00DA11D621F739F31
:10150000B00DA11D621F839FA00D611D221F749F3E
:101510003327A00D611D231F849F600D211D822F85
:10152000762F6A2F11249F5750409AF0F1F08823AC
:101530004AF0EE0FFF1FBB1F661F771F881F9150D9
:101540005040A9F79E3F510580F00C94BC0A0C94C2
:10155000070B5F3FE4F3983ED4F386957795679544
:10156000B795F795E7959F5FC1F7FE2B880F911D03
:101570009695879597F9089597F99F6780E870E0A9
:1015800060E008959FEF80EC089500240A941616F9
:10159000170618060906089500240A941216130661
:1015A000140605060895092E0394000C11F48823EF
:1015B00052F0BB0F40F4BF2B11F460FF04C06F5F0B
:1015C0007F4F8F4F9F4F089557FD9058440F551FE1
:1015D00059F05F3F71F04795880F97FB991F61F0B5
:1015E0009F3F79F087950895121613061406551F2C
:1015F000F2CF4695F1DF08C0161617061806991F98
:10160000F1CF86957105610508940895E894BB278C
:1016100066277727CB0197F908952F923F924F9233
:101620005F926F927F928F929F92AF92BF92CF9272
:10163000DF92EF92FF920F931F93CF93DF93CDB77B
:10164000DEB7CA1BDB0B0FB6F894DEBF0FBECDBFF3
:1016500009942A88398848885F846E847D848C84C4
:101660009B84AA84B984C884DF80EE80FD800C81CD
:101670001B81AA81B981CE0FD11D0FB6F894DEBFB0
:101680000FBECDBFED0108955058BB27AA270E9479
:101690005C0B0C94D30A0E94C50A38F00E94CC0A55
:1016A00020F039F49F3F19F426F40C94C20A0EF48A
:1016B000E095E7FB0C94BC0AE92F0E94E40A58F37A
:1016C000BA17620773078407950720F079F4A6F527
:1016D0000C94060B0EF4E0950B2EBA2FA02D0B01E7
:1016E000B90190010C01CA01A0011124FF27591B67
:1016F00099F0593F50F4503E68F11A16F040A22F6D
:10170000232F342F4427585FF3CF469537952795DD
:10171000A795F0405395C9F77EF41F16BA0B620BDC
:10172000730B840BBAF09150A1F0FF0FBB1F661F23
:10173000771F881FC2F70EC0BA0F621F731F841F66
:1017400048F4879577956795B795F7959E3F08F08C
:10175000B0CF9395880F08F09927EE0F979587954E
:1017600008950E94EC0A88F09F5798F0B92F9927A6
:10177000B751B0F0E1F0660F771F881F991F1AF07C
:10178000BA95C9F714C0B13091F00E94060BB1E0D0
:1017900008950C94060B672F782F8827B85F39F0CF
:1017A000B93FCCF3869577956795B395D9F73EF415
:1017B00090958095709561957F4F8F4F9F4F0895BD
:1017C0000E942B0A08F48FEF08950E942B0A880BC1
:1017D000990B0895A1E21A2EAA1BBB1BFD010DC097
:1017E000AA1FBB1FEE1FFF1FA217B307E407F507D1
:1017F00020F0A21BB30BE40BF50B661F771F881FAD
:10180000991F1A9469F760957095809590959B0142
:10181000AC01BD01CF010895EE0FFF1F0590F491BB
:10182000E02D09940F931F93CF93DF93823091059E
:1018300010F482E090E0E091D502F091D60230E021
:1018400020E0B0E0A0E0309799F42115310509F4CB
:101850004AC0281B390B24303105D8F58A819B8179
:101860006115710589F1FB0193838283FE0111C02B
:10187000408151810281138148175907E0F04817D0
:10188000590799F4109761F012960C9312971396DA
:101890001C933296CF01DF91CF911F910F91089544
:1018A0000093D5021093D602F4CF2115310551F0E3
:1018B0004217530738F0A901DB019A01BD01DF018E
:1018C000F801C1CFEF01F9CF9093D6028093D502F2
:1018D000CDCFFE01E20FF31F819391932250310986
:1018E00039832883D7CF2091D3023091D402232B80
:1018F00041F420910B0130910C013093D4022093DC
:10190000D3022091090130910A012115310541F4DA
:101910002DB73EB740910D0150910E01241B350BA0
:10192000E091D302F091D402E217F307A0F42E1B4A
:101930003F0B2817390778F0AC014E5F5F4F241733
:10194000350748F04E0F5F1F5093D4024093D302E7
:10195000819391939FCFF0E0E0E09CCFCF93DF9312
:101960000097E9F0FC01329713821282A091D50210
:10197000B091D602ED0130E020E01097A1F4208173
:101980003181820F931F2091D3023091D402281706
:10199000390709F061C0F093D402E093D302DF91DC
:1019A000CF910895EA01CE17DF07E8F54A815B8100
:1019B0009E0141155105B1F7E901FB83EA83499185
:1019C0005991C40FD51FEC17FD0761F480819181F7
:1019D0000296840F951FE901998388838281938100
:1019E0009B838A83F0E0E0E012968D919C9113979F
:1019F0000097B9F52D913C911197CD010296820F78
:101A0000931F2091D3023091D4022817390739F659
:101A1000309751F51092D6021092D502B093D402AD
:101A2000A093D302BCCFD383C28340815181840F62
:101A3000951FC817D90761F44E5F5F4F8881998160
:101A4000480F591F518340838A819B8193838283EE
:101A50002115310509F0B0CFF093D602E093D502FD
:101A60009ECFFD01DC01C0CF13821282D7CFB0E040
:101A7000A0E0EDE3FDE00C940F0B8C01009751F416
:101A8000CB010E94120C8C01C801CDB7DEB7E0E19A
:101A90000C942B0BFC01E60FF71F9C01225031091F
:101AA000E217F30708F49DC0D901CD91DC9111979D
:101AB000C617D70798F0C530D10530F3CE0104978B
:101AC0008617970708F3C61BD70B2297C193D193AC
:101AD0006D937C93CF010E94AE0CD6CF5B01AC1A04
:101AE000BD0A4C018C0E9D1EA091D502B091D6026C
:101AF000512C412CF12CE12C109731F58091D3021F
:101B00009091D4028815990509F05CC046165706D5
:101B100008F058C08091090190910A01009741F4A2
:101B20008DB79EB740910D0150910E01841B950B0E
:101B3000E817F90708F055C0F093D402E093D302F8
:101B4000F90171836083A0CF8D919C9111971296BA
:101B50006C90129713967C901397A815B90559F5B8
:101B60006C0142E0C40ED11CCA14DB0420F1AC01AC
:101B70004A195B09DA011296159780F06282738226
:101B800051834083D9016D937C93E114F10471F08A
:101B9000D7011396FC93EE93129776CF22968C0F73
:101BA0009D1FF90191838083F301EFCFF093D6025B
:101BB000E093D50269CF4816590608F42C017D013F
:101BC000D3019ACFCB010E94120C7C01009749F0FF
:101BD000AE01B8010E94F40DC8010E94AE0C87014D
:101BE00053CF10E000E050CFFB01DC0102C00190B8
:101BF0000D9241505040D8F70895FB01DC0101904F
:101C00000D920020E1F70895AEE0B0E0EAE0FEE0DA
:101C10000C941B0B0D891E898F89988D26E02C83CF
:101C20001A83098397FF02C080E090E801979E83A2
:101C30008D83AE01455E5F4F698D7A8DCE01019631
:101C40000E94340E4D815E8157FD0AC02F81388578
:101C5000421753070CF49A01020F131FF801108268
:101C60002E96E4E00C94370BABE0B0E0EAE3FEE044
:101C70000C940D0B7C013B018A01FC01178216823A
:101C8000838181FFC8C1CE0101965C01F701938178
:101C9000F30193FD859193FF81913F01882309F41E
:101CA00053C1853239F493FD859193FF81913F01B2
:101CB000853229F4B70190E00E942410E7CF912CDF
:101CC000212C312CFFE1F31538F08B3211F190F417
:101CD000803209F1833229F137FC3CC020ED280F16
:101CE0002A3050F536FE20C08AE0989E200D11243F
:101CF000922E06C08D3291F0803371F7689430F8DF
:101D0000F30193FD859193FF81913F018111DACF1A
:101D100021C0689431F8689432F8F2CF689433F8AF
:101D2000EFCF689434F8ECCFEAE02E9E200D11241A
:101D3000222E689435F8E4CF8E3229F436FC04C1A3
:101D4000689436F8DDCF8C3619F4689437F8D8CF1C
:101D50008836B1F2982F9F7D95549330E0F083360A
:101D6000A1F18337C1F1833509F063C02801F2E0A6
:101D70004F0E511CF801C080D180692D70E036FCF7
:101D800002C06FEF7FEFC6010E940E104C016894F5
:101D900037F882010AC00C5F1F4FFFE3F9838824E4
:101DA0008394912C6501E89437F833FE2DC0522CB2
:101DB0008114910471F5552009F468CFB70180E2D0
:101DC00090E00E9424105A94F6CFF8018081898314
:101DD0000E5F1F4FE4CF2801F2E04F0E511CF801B7
:101DE000C080D180692D70E036FC02C06FEF7FEFBC
:101DF000C6010E9419104C018201D5CFB70180E2C3
:101E000090E00E9424102A942814190409F0B0F7D5
:101E1000CECFF60137FC859137FE81916F01B70176
:101E200090E00E94241051105A94F1E08F1A91080A
:101E3000BFCF843619F0893609F077C0F80137FE34
:101E40006BC060817181828193810C5F1F4FF32D84
:101E5000FF763F2E97FF09C090958095709561950C
:101E60007F4F8F4F9F4F689437F82AE030E0A501ED
:101E70000E945410C82ECA188C2C432C36FE0CC05D
:101E8000E89440F8C91440F434FE05C032FC03C0A5
:101E9000F32DFE7E4F2E892C44FE95C0FE01EC0DE5
:101EA000F11D8081803309F087C0242D297E422EC8
:101EB000842D8870582E43FC95C040FE8FC09C2C0A
:101EC000821418F42C0C922C981844FE91C0B7017F
:101ED00080E390E00E94241042FE09C088E790E071
:101EE00041FE02C088E590E0B7010E942410C914A9
:101EF00008F48AC0CA94D12C9FEFC91AD90ACA0C17
:101F0000DB1CF60182916F01B70190E00E94241062
:101F1000AC14BD04B1F74FCF60817181072E000C66
:101F2000880B990B0E5F1F4F92CFD32CE894D4F8F7
:101F30002AE030E0853739F1232D297FD22E8F36E4
:101F400001F148F48835A9F0F701868197812B9635
:101F5000E2E10C94290B803749F08837A9F7D4FEC9
:101F600002C06894D2F820E130E00DC06894D4F843
:101F7000F6CF34FE03C0822F8660D82E20E132E0F7
:101F800002C028E030E0F801D7FE0FC06081718107
:101F9000828193810C5F1F4FA5010E945410C82EAF
:101FA000CA183D2CE89437F867CF6081718190E0C2
:101FB00080E00E5F1F4FF0CF42FC02C0839478CFC9
:101FC0008394839475CF842D867809F471CFF6CFEE
:101FD000B70180E290E00E94241083948214C0F341
:101FE000512C73CF522C5818821408F46ECFF8CFAE
:101FF000842D867809F47BCF8BE241FE80E247FC9A
:102000008DE2B70190E071CFB70180E390E00E94CC
:1020100024109A946CCF8FEF9FEF99CFFC0105901D
:10202000615070400110D8F7809590958E0F9F1FDA
:102030000895FC016150704001900110D8F780951F
:1020400090958E0F9F1F08950F931F93CF93DF934B
:10205000182F092FEB018B8181FD09C01FEF0FEFB6
:10206000812F902FDF91CF911F910F91089582FFC3
:1020700014C02E813F818C819D81281739073CF443
:10208000E881F981CF0101969983888310838E813D
:102090009F8101969F838E83E3CFE885F985812F09
:1020A0000995892BA1F3DACFFA01AA27283051F13B
:1020B000203181F1E8946F936E7F6E5F7F4F8F4F79
:1020C0009F4FAF4FB1E03ED0B4E03CD0670F781FD8
:1020D000891F9A1FA11D680F791F8A1F911DA11DBD
:1020E0006A0F711D811D911DA11D20D009F46894F6
:1020F0003F912AE0269F11243019305D3193DEF69E
:10210000CF010895462F4770405D4193B3E00FD053
:10211000C9F7F6CF462F4F70405D4A3318F0495D3E
:1021200031FD4052419302D0A9F7EACFB4E0A69521
:102130009795879577956795BA95C9F70097610543
:10214000710508959B01AC010A2E06945795479599
:1021500037952795BA95C9F7620F731F841F951F8E
:10216000A01D0895F894FFCF48ACEEAA000000002F
:10217000FF0000D7028000000000009C01FC002945
:1021800001E9015A0138014C01000000007E0451B0
:1021900004AD042E04F3003E042F042530326420E5
:1021A00025303264202530326420253032642025E9
:1021B0003032642025303264000D0A006E616E00FA
:0821C000696E66006F7666008F
:107E0000112484B714BE81FFF0D085E080938100F7
:107E100082E08093C00088E18093C10086E0809377
:107E2000C20080E18093C4008EE0C9D0259A86E02C
:107E300020E33CEF91E0309385002093840096BBD3
:107E4000B09BFECF1D9AA8958150A9F7CC24DD24C4
:107E500088248394B5E0AB2EA1E19A2EF3E0BF2EE7
:107E6000A2D0813461F49FD0082FAFD0023811F036
:107E7000013811F484E001C083E08DD089C08234E0
:107E800011F484E103C0853419F485E0A6D080C0E4
:107E9000853579F488D0E82EFF2485D0082F10E0AE
:107EA000102F00270E291F29000F111F8ED06801E7
:107EB0006FC0863521F484E090D080E0DECF843638
:107EC00009F040C070D06FD0082F6DD080E0C81688
:107ED00080E7D80618F4F601B7BEE895C0E0D1E017
:107EE00062D089930C17E1F7F0E0CF16F0E7DF06D8
:107EF00018F0F601B7BEE89568D007B600FCFDCFD4
:107F0000A601A0E0B1E02C9130E011968C91119780
:107F100090E0982F8827822B932B1296FA010C0160
:107F200087BEE89511244E5F5F4FF1E0A038BF0790
:107F300051F7F601A7BEE89507B600FCFDCF97BE46
:107F4000E89526C08437B1F42ED02DD0F82E2BD052
:107F50003CD0F601EF2C8F010F5F1F4F84911BD097
:107F6000EA94F801C1F70894C11CD11CFA94CF0C13
:107F7000D11C0EC0853739F428D08EE10CD085E9AC
:107F80000AD08FE07ACF813511F488E018D01DD067
:107F900080E101D065CF982F8091C00085FFFCCF94
:107FA0009093C60008958091C00087FFFCCF809118
:107FB000C00084FD01C0A8958091C6000895E0E648
:107FC000F0E098E1908380830895EDDF803219F02E
:107FD00088E0F5DFFFCF84E1DECF1F93182FE3DFCA
:107FE0001150E9F7F2DF1F91089580E0E8DFEE27F6
:047FF000FF270994CA
:027FFE00040479
:00000001FF
