:100000000C942A000C9434000C9434000C943400AA
:100010000C9434000C9434000C9434000C94340090
:100020000C9434000C9434000C944F000C94340065
:100030000C9434000C9434000C9434000C94340070
:100040000C9434000C9434000C9434000C94340060
:100050000C94340011241FBECFE5D8E0DEBFCDBF25
:100060000E9487000C9405020C940000B8988FEF52
:1000700084BB15BA089513BE12BE8AE08CBF89B73F
:10008000826089BF83B78F6083BF789408951FBC57
:100090001EBC1DBC1CBC8EB585608EBD08951F9214
:1000A0000F920FB60F9211242F933F934F935F93AC
:1000B0006F937F938F939F93AF93BF93EF93FF9330
:1000C0006CB57DB56F5F7F4F90E080E00E94BD0012
:1000D0002DEB37E346E859E30E9423010E9490018B
:1000E0000E948E0065BB12BE1DBC1CBCFF91EF912F
:1000F000BF91AF919F918F917F916F915F914F9140
:100100003F912F910F900FBE0F901F9018950E9456
:1001100036000E943B000E944700FFCF0E94020170
:1001200088F09F5798F0B92F9927B751B0F0E1F0B8
:10013000660F771F881F991F1AF0BA95C9F714C068
:10014000B13091F00E941C01B1E008950C941C01A3
:10015000672F782F8827B85F39F0B93FCCF38695A1
:1001600077956795B395D9F73EF4909580957095FE
:1001700061957F4F8F4F9F4F0895E89409C097FB7B
:100180003EF490958095709561957F4F8F4F9F4F6E
:100190009923A9F0F92F96E9BB279395F6958795B2
:1001A00077956795B795F111F8CFFAF4BB0F11F475
:1001B00060FF1BC06F5F7F4F8F4F9F4F16C088231C
:1001C00011F096E911C0772321F09EE8872F762F52
:1001D00005C0662371F096E8862F70E060E02AF093
:1001E0009A95660F771F881FDAF7880F969587957F
:1001F00097F9089557FD9058440F551F59F05F3FE8
:1002000071F04795880F97FB991F61F09F3F79F038
:1002100087950895121613061406551FF2CF4695BA
:10022000F1DF08C0161617061806991FF1CF86953C
:100230007105610508940895E894BB276627772720
:10024000CB0197F908950E9436010C94F4010E94A5
:10025000E60138F00E94ED0120F0952311F00C9496
:10026000B4010C94E30111240C941D010E94FA00C6
:1002700070F3959FC1F3950F50E0551F629FF001F9
:10028000729FBB27F00DB11D639FAA27F00DB11D12
:10029000AA1F649F6627B00DA11D661F829F22279B
:1002A000B00DA11D621F739FB00DA11D621F839F22
:1002B000A00D611D221F749F3327A00D611D231FF8
:1002C000849F600D211D822F762F6A2F11249F5746
:1002D00050409AF0F1F088234AF0EE0FFF1FBB1F49
:1002E000661F771F881F91505040A9F79E3F510508
:1002F00080F00C94B4010C941D015F3FE4F3983E30
:10030000D4F3869577956795B795F795E7959F5FB1
:10031000C1F7FE2B880F911D9695879597F9089543
:100320000E940201E8F09E37E8F09639B8F49E3852
:1003300048F4672F782F8827985FF9CF86957795AF
:10034000679593959539D0F3B62FB1706B0F711DEA
:10035000811D20F487957795679593950C94BA0144
:100360000C94D5010C941D0197F99F6780E870E00B
:1003700060E00895882371F4772321F09850872B4B
:10038000762F07C0662311F499270DC09051862B54
:1003900070E060E02AF09A95660F771F881FDAF701
:1003A000880F9695879597F908959F3F31F0915062
:1003B00020F4879577956795B795880F911D969549
:1003C000879597F908959FEF80EC089500240A948B
:1003D0001616170618060906089500240A94121620
:1003E0001306140605060895092E0394000C11F453
:1003F000882352F0BB0F40F4BF2B11F460FF04C000
:0E0400006F5F7F4F8F4F9F4F0895F894FFCF8F
:00000001FF
