:100000000C942A000C9434000C9434000C943400AA
:100010000C9434000C9434000C9434000C9449007B
:100020000C9434000C9434000C9434000C94340080
:100030000C9434000C9434000C9434000C94340070
:100040000C9434000C9434000C9434000C94340060
:100050000C94340011241FBECFE5D8E0DEBFCDBF25
:100060000E945B000C9460000C940000B89AC09A47
:1000700008951EBC1FBC1DBC1CBC88E09DE39BBD3D
:100080008ABD89B7806189BF8EB58D608EBD789439
:1000900008951F920F920FB60F9211248F939F9382
:1000A00088B391E0892788BB9F918F910F900FBEF5
:1000B0000F901F9018950E9436000E943900FFCFC4
:0400C000F894FFCFE2
:00000001FF
