:100000000C942A000C943C000C943C000C943C0092
:100010000C943C000C943C000C943C000C943C0070
:100020000C943C000C946C000C943C000C943C0030
:100030000C943C000C943C000C943C000C943C0050
:100040000C943C000C943C000C943C000C943C0040
:100050000C943C0011241FBECFE5D8E0DEBFCDBF1D
:1000600020E0A0E6B0E001C01D92A136B207E1F7A2
:100070000E94AB000C9499020C9400001EBC1DBCA5
:100080001CBC89B7846089BF8EB585608EBD08951C
:1000900013BE12BE83B7876083BF08950E944800D5
:1000A0000E943E007894089584B3876084BBA89A28
:1000B000B8980895809160008C3348F481E085BB46
:1000C00080916000853610F084E085BB08958C53E4
:1000D0008932B0F782E0F3CF1F920F920FB60F92E2
:1000E00011242F933F934F935F936F937F938F933D
:1000F0009F93AF93BF93EF93FF9362B770E090E04D
:1001000080E00E94530120E030E040E752E40E948A
:10011000DF012DEB37E346E051E40E94B0000E947E
:100120004C020E942201609360000E945A0012BE9D
:100130001DBC1CBCFF91EF91BF91AF919F918F911E
:100140007F916F915F914F913F912F910F900FBED3
:100150000F901F9018950E9454000E944E00FFCFF0
:100160000E94C4000C94A5010E949E0158F00E94B8
:10017000970140F029F45F3F29F00C948E01511152
:100180000C94D9010C9494010E94B60168F3992350
:10019000B1F3552391F3951B550BBB27AA27621783
:1001A0007307840738F09F5F5F4F220F331F441F90
:1001B000AA1FA9F335D00E2E3AF0E0E832D09150C4
:1001C0005040E695001CCAF72BD0FE2F29D0660FB1
:1001D000771F881FBB1F261737074807AB07B0E8F4
:1001E00009F0BB0B802DBF01FF2793585F4F3AF0FA
:1001F0009E3F510578F00C948E010C94D9015F3F1D
:10020000E4F3983ED4F3869577956795B795F7957F
:100210009F5FC9F7880F911D9695879597F9089567
:10022000E1E0660F771F881FBB1F62177307840703
:10023000BA0720F0621B730B840BBA0BEE1F88F712
:10024000E09508950E94BE0188F09F5798F0B92F5D
:100250009927B751B0F0E1F0660F771F881F991FFB
:100260001AF0BA95C9F714C0B13091F00E94D801C4
:10027000B1E008950C94D801672F782F8827B85FD4
:1002800039F0B93FCCF3869577956795B395D9F753
:100290003EF490958095709561957F4F8F4F9F4F5D
:1002A0000895E89409C097FB3EF490958095709569
:1002B00061957F4F8F4F9F4F9923A9F0F92F96E9B2
:1002C000BB279395F695879577956795B795F11127
:1002D000F8CFFAF4BB0F11F460FF1BC06F5F7F4FC4
:1002E0008F4F9F4F16C0882311F096E911C07723D6
:1002F00021F09EE8872F762F05C0662371F096E8DF
:10030000862F70E060E02AF09A95660F771F881FAD
:10031000DAF7880F9695879597F9089597F99F676B
:1003200080E870E060E008959FEF80EC089500247D
:100330000A941616170618060906089500240A944A
:1003400012161306140605060895092E0394000CD0
:1003500011F4882352F0BB0F40F4BF2B11F460FF5F
:1003600004C06F5F7F4F8F4F9F4F089557FD905888
:10037000440F551F59F05F3F71F04795880F97FB69
:10038000991F61F09F3F79F0879508951216130623
:100390001406551FF2CF4695F1DF08C01616170652
:1003A0001806991FF1CF8695710561050894089587
:1003B000E894BB2766277727CB0197F908950E9419
:1003C000F2010C94A5010E94970138F00E949E0151
:1003D00020F0952311F00C948E010C9494011124BB
:1003E0000C94D9010E94B60170F3959FC1F3950F4B
:1003F00050E0551F629FF001729FBB27F00DB11DA9
:10040000639FAA27F00DB11DAA1F649F6627B00D38
:10041000A11D661F829F2227B00DA11D621F739F21
:10042000B00DA11D621F839FA00D611D221F749F2F
:100430003327A00D611D231F849F600D211D822F76
:10044000762F6A2F11249F5750409AF0F1F088239D
:100450004AF0EE0FFF1FBB1F661F771F881F9150CA
:100460005040A9F79E3F510580F00C948E010C94EA
:10047000D9015F3FE4F3983ED4F38695779567956D
:10048000B795F795E7959F5FC1F7FE2B880F911DF4
:100490009695879597F908950E94BE01E8F09E37DA
:1004A000E8F09639B8F49E3848F4672F782F8827FB
:1004B000985FF9CF86957795679593959539D0F3A1
:1004C000B62FB1706B0F711D811D20F48795779544
:1004D000679593950C9470020C948B020C94D9013F
:1004E000882371F4772321F09850872B762F07C04B
:1004F000662311F499270DC09051862B70E060E0BF
:100500002AF09A95660F771F881FDAF7880F96955D
:10051000879597F908959F3F31F0915020F4879582
:1005200077956795B795880F911D9695879597F95B
:060530000895F894FFCFCE
:00000001FF
