:100000000C942A000C9447000C9447000C94470071
:100010000C9447000C9447000C946A000C94470021
:100020000C9447000C9447000C9447000C94B700C4
:100030000C9447000C9447000C9447000C94470024
:100040000C9447000C9447000C9447000C94470014
:100050000C94470011241FBECFE5D8E0DEBFCDBF12
:1000600010E0A0E6B0E0E0EAF5E002C005900D92F5
:10007000A236B107D9F720E0A2E6B0E001C01D9298
:10008000A536B207E1F70E94E0000C94CE020C9472
:1000900000001EBC1DBC1CBC17BC16BC89B780620E
:1000A00089BF8EB584648EBD089513BE12BE89B714
:1000B000816089BF83B7846083BF08950E94550023
:1000C0000E9449007894089584B3876084BBA89AFD
:1000D0008E9808951F920F920FB60F9211242F93AE
:1000E0003F934F935F936F937F938F939F93AF93C0
:1000F000BF93EF93FF9366B577B5809163009091BE
:1001000064000097A9F47093640060936300FF910A
:10011000EF91BF91AF919F918F917F916F915F917F
:100120004F913F912F910F900FBE0F901F901895F8
:10013000681B790B90E080E00E9486012DEB37E38D
:1001400046E058E30E9414029B01AC0160E070E0BD
:1001500080E792E40E94E5000E9481020E9457011C
:10016000609362001092640010926300D0CF1F92DF
:100170000F920FB60F9211248F938091600081111E
:100180000FC0809162008233B0F481E085BB809122
:100190006200843610F084E085BB8AE780936000BB
:1001A000809160008150809360008F910F900FBE0E
:1001B0000F901F9018958253823348F782E0E6CF64
:1001C0000E9464000E945E00FFCF0E94F9000C9420
:1001D000DA010E94D30158F00E94CC0140F029F4CA
:1001E0005F3F29F00C94C30151110C940E020C9442
:1001F000C9010E94EB0168F39923B1F3552391F3F0
:10020000951B550BBB27AA2762177307840738F085
:100210009F5F5F4F220F331F441FAA1FA9F335D0E2
:100220000E2E3AF0E0E832D091505040E695001C96
:10023000CAF72BD0FE2F29D0660F771F881FBB1F50
:10024000261737074807AB07B0E809F0BB0B802D2E
:10025000BF01FF2793585F4F3AF09E3F510578F05A
:100260000C94C3010C940E025F3FE4F3983ED4F368
:10027000869577956795B795F7959F5FC9F7880F2E
:10028000911D9695879597F90895E1E0660F771F80
:10029000881FBB1F621773078407BA0720F0621B11
:1002A000730B840BBA0BEE1F88F7E09508950E943C
:1002B000F30188F09F5798F0B92F9927B751B0F004
:1002C000E1F0660F771F881F991F1AF0BA95C9F7DA
:1002D00014C0B13091F00E940D02B1E008950C9469
:1002E0000D02672F782F8827B85F39F0B93FCCF31C
:1002F000869577956795B395D9F73EF49095809557
:10030000709561957F4F8F4F9F4F0895E89409C076
:1003100097FB3EF490958095709561957F4F8F4F38
:100320009F4F9923A9F0F92F96E9BB279395F6954E
:10033000879577956795B795F111F8CFFAF4BB0FCC
:1003400011F460FF1BC06F5F7F4F8F4F9F4F16C030
:10035000882311F096E911C0772321F09EE8872FBA
:10036000762F05C0662371F096E8862F70E060E076
:100370002AF09A95660F771F881FDAF7880F9695EF
:10038000879597F9089597F99F6780E870E060E096
:1003900008959FEF80EC089500240A94161617061E
:1003A00018060906089500240A9412161306140666
:1003B00005060895092E0394000C11F4882352F0C9
:1003C000BB0F40F4BF2B11F460FF04C06F5F7F4F81
:1003D0008F4F9F4F089557FD9058440F551F59F068
:1003E0005F3F71F04795880F97FB991F61F09F3F22
:1003F00079F087950895121613061406551FF2CF4B
:100400004695F1DF08C0161617061806991FF1CF9A
:1004100086957105610508940895E894BB276627C1
:100420007727CB0197F908950E9427020C94DA01EF
:100430000E94CC0138F00E94D30120F0952311F0E6
:100440000C94C3010C94C90111240C940E020E9457
:10045000EB0170F3959FC1F3950F50E0551F629F1C
:10046000F001729FBB27F00DB11D639FAA27F00D0D
:10047000B11DAA1F649F6627B00DA11D661F829F34
:100480002227B00DA11D621F739FB00DA11D621F19
:10049000839FA00D611D221F749F3327A00D611D36
:1004A000231F849F600D211D822F762F6A2F112418
:1004B0009F5750409AF0F1F088234AF0EE0FFF1F4B
:1004C000BB1F661F771F881F91505040A9F79E3FA2
:1004D000510580F00C94C3010C940E025F3FE4F3CD
:1004E000983ED4F3869577956795B795F795E795F8
:1004F0009F5FC1F7FE2B880F911D9695879597F901
:1005000008950E94F301E8F09E37E8F09639B8F4B8
:100510009E3848F4672F782F8827985FF9CF869503
:100520007795679593959539D0F3B62FB1706B0F8A
:10053000711D811D20F487957795679593950C948F
:10054000A5020C94C0020C940E02882371F4772348
:1005500021F09850872B762F07C0662311F4992736
:100560000DC09051862B70E060E02AF09A95660FDE
:10057000771F881FDAF7880F9695879597F9089562
:100580009F3F31F0915020F4879577956795B79507
:10059000880F911D9695879597F90895F894FFCF48
:0205A0007A00DF
:00000001FF
