:100000000C945E000C9486000C9486000C94860080
:100010000C9486000C9486000C9486000C94860048
:100020000C9486000C9486000C9486000C94860038
:100030000C9486000C9486000C9486000C94860028
:100040000C9461040C9486000C94D1040C94AB04C1
:100050000C9486000C9486000C9486000C94860008
:100060000C9486000C948600000000080002010039
:100070000003040700000000000000000000000072
:10008000250028002B0000000000240027002A0083
:10009000040404040404040402020202020203032E
:1000A0000303030301020408102040800102040836
:1000B00010200102040810200305C70611241FBEEA
:1000C000CFEFD8E0DEBFCDBF22E0A4E4B1E001C0B5
:1000D0001D92AC30B207E1F711E0A0E0B1E0E4E23C
:1000E000F2E102C005900D92A434B107D9F710E0F7
:1000F000CDE5D0E004C02197FE010E940207CC3577
:10010000D107C9F70E9454050C9405090C9400000E
:1001100090E0FC01EC55FF4F249180579F4FFC016C
:100120008491882399F090E0880F991FFC01EA5789
:10013000FF4FA591B491FC01E458FF4F8591949134
:100140008FB7F894EC91E22BEC938FBF089590E079
:10015000FC01E859FF4F2491FC01EC55FF4F34910D
:10016000FC01E057FF4FE491EE23C9F0222339F060
:10017000233001F1A8F4213019F1223029F1F0E007
:10018000EE0FFF1FE458FF4FA591B4918FB7F8947D
:10019000EC91611126C030953E233C938FBF0895AA
:1001A0002730A9F02830C9F0243049F78091800029
:1001B0008F7D03C0809180008F7780938000DFCF98
:1001C00084B58F7784BDDBCF84B58F7DFBCF8091E5
:1001D000B0008F778093B000D2CF8091B0008F7D38
:1001E000F9CF3E2BDACFAF92BF92CF92DF92EF9250
:1001F000FF920F931F93CF93DF936C017B018B01D1
:10020000040F151FEB015E01AE18BF08C017D10720
:1002100059F06991D601ED91FC910190F081E02DAA
:10022000C6010995892B79F7C501DF91CF911F91FF
:100230000F91FF90EF90DF90CF90BF90AF90089517
:10024000FC01448155816081718180EF91E00C94C3
:10025000F300FC01538D448D252F30E0842F90E076
:10026000821B930B541710F0CF96089501970895B1
:10027000FC01918D828D981761F0A28DAE0FBF2F7A
:10028000B11D5D968C91928D9F5F9F73928F90E0D0
:1002900008958FEF9FEF0895FC01918D828D98173F
:1002A00031F0828DE80FF11D858D90E008958FEF7C
:1002B0009FEF0895FC01918D228D892F90E0805C45
:1002C0009F4F821B91098F73992708958DE491E0C8
:1002D0000E945A0121E0892B09F420E0822F089521
:1002E00080E090E0892B29F00E94660181110C9436
:1002F00000000895FC01A48DA80FB92FB11DA35AC9
:10030000BF4F2C91848D90E001968F739927848F35
:10031000A689B7892C93A089B1898C918370806458
:100320008C93938D848D981306C00288F389E02DF9
:1003300080818F7D80830895EF92FF920F931F93AA
:10034000CF93DF93EC0181E0888F9B8D8C8D981388
:100350001AC0E889F989808185FF15C09FB7F89494
:10036000EE89FF896083E889F989808183708064E0
:1003700080839FBF81E090E0DF91CF911F910F912B
:10038000FF90EF900895F62E0B8D10E00F5F1F4F3A
:100390000F731127E02E8C8D8E110CC00FB607FC49
:1003A000FACFE889F989808185FFF5CFCE010E94D7
:1003B0007A01F1CFEB8DEC0FFD2FF11DE35AFF4FCA
:1003C000F0829FB7F8940B8FEA89FB898081806265
:1003D000CFCFCF93DF93EC01888D8823B9F0AA8922
:1003E000BB89E889F9898C9185FD03C0808186FDF0
:1003F0000DC00FB607FCF7CF8C9185FFF2CF80813F
:1004000085FFEDCFCE010E947A01E9CFDF91CF9138
:100410000895089590E080E00895CF93DF93EC0174
:1004200060E08E810E94A70061E08E810E94A7009B
:1004300060E08E810E94A7008BE891E00197F1F7C0
:10044000DF91CF910895CF92DF92EF92FF920F93B9
:100450001F93CF93DF936C017C0187E0E80EF11CC2
:10046000D0E0C0E0062F10E0B8010C2E02C0759558
:1004700067950A94E2F76170F70181917F010E940C
:10048000A7002196C430D10579F7C601DF91CF913D
:100490001F910F91FF90EF90DF90CF900C940D0281
:1004A000CF92DF92EF92FF920F931F93CF93DF9340
:1004B000EC01F62E642F8C810E94A7008D818F3F66
:1004C00019F060E00E94A7000F2D10E08F8584FFD7
:1004D00025C06E0187E0C80ED11CF12CE12CB801BB
:1004E0000E2C02C0759567950A94E2F76170F601CB
:1004F00081916F010E94A700FFEFEF1AFF0A88E0C9
:10050000E816F10461F7CE01DF91CF911F910F91B1
:10051000FF90EF90DF90CF900C940D02B80184E033
:10052000759567958A95E1F7CE010E9423026F2D9C
:10053000CE01DF91CF911F910F91FF90EF90DF904F
:10054000CF900C94230240E0682F80EF91E00C9450
:100550005002CF93DF93613029F09091FF019860B2
:100560009093FF01609303021092040290E4909331
:10057000050280930602805C809307028091F4015B
:100580000E9488008091F5018F3F11F00E94880041
:100590008091F6010E948800C0EFD1E09E01205FAB
:1005A00031408091FF0184FD0AC084E090E02196F3
:1005B000281739073CF48E810E948800EFCF88E02D
:1005C00090E0F5CF8BE39DE00197F1F760E080913B
:1005D000F4010E94A70060E08091F6010E94A7004C
:1005E0008091F5018F3F19F060E00E94A700809193
:1005F000FF0184FD39C063E080EF91E00E94230297
:10060000CBE4D6E4CE010197F1F763E080EF91E00F
:100610000E9423022197F1F763E080EF91E00E94AE
:10062000230283E592E00197F1F762E080EF91E029
:100630000E9423028091FF0180620E94A30284E055
:10064000809300028CE00E94A30281E00E94A3023A
:100650008BE39FE10197F1F782E08093010286E04E
:10066000DF91CF910C94A30280620E94A3028BE4DD
:1006700096E40197F1F78091FF0180620E94A30246
:1006800083E592E00197F1F78091FF0180620E947B
:10069000A302D0CF90910302891710F08FEF890F3A
:1006A000E82FF0E0E051FE4F848980680C94A302AB
:1006B00041E00E94500281E090E008950F931F9363
:1006C000CF93DF93EC0188819981009759F02A81BB
:1006D0003B812617370730F081E0DF91CF911F91E2
:1006E0000F9108958B016F5F7F4F0E942D08009737
:1006F00059F0998388831B830A832C813D81232BA6
:1007000059F7FC011082E8CF80E0E7CFCF93DF9369
:10071000EC0188819981009711F00E94A407198249
:1007200018821D821C821B821A82DF91CF9108954C
:10073000EF92FF920F931F93CF93DF93EC01FB0196
:10074000E080F180E114F10411F1048115810115BB
:100750001105A9F08C819D81080F191FB801CE01E8
:100760000E945E03882399F0288139818C819D81C4
:10077000B701820F931F0E94FE081D830C83CE01D8
:10078000DF91CF911F910F91FF90EF900895CE01CF
:100790000E948603F4CFEF92FF920F931F93CF93A3
:1007A000DF93EC017B018A01BA010E945E03811193
:1007B0000BC0CE010E948603CE01DF91CF911F9125
:1007C0000F91FF90EF9008951D830C83B7018881EE
:1007D00099810E94FE08F0CFCF92DF92EF92FF92B4
:1007E0000F931F93CF93DF93EC016B017A014617B0
:1007F000570720F48D2D6A01E62EF82E19821882F3
:100800001B821A821D821C8250E040E06CE371E082
:10081000CE010E94CB030091EE011091EF01C016B2
:10082000D10640F5E016F10608F48701E091EA01EF
:10083000F091EB01E00FF11FF08010826091EA016E
:100840007091EB016C0D7D1D61157105E9F0FB01E7
:1008500001900020E9F73197AF01461B570BCE01FD
:100860000E94CB038091EA019091EB01080F191FC0
:10087000F801F082CE01DF91CF911F910F91FF908F
:10088000EF90DF90CF900895CE010E948603EACFCB
:10089000FC01118210821382128215821482FB01E4
:1008A00001900020E9F73197AF01461B570B0C94DC
:1008B000CB03FC0180819181009711F00C94A40777
:1008C00008951F920F920FB60F9211242F933F930A
:1008D0008F939F93AF93BF938091490190914A0169
:1008E000A0914B01B0914C013091480123E0230FBE
:1008F0002D3758F50196A11DB11D20934801809315
:10090000490190934A01A0934B01B0934C0180910F
:10091000440190914501A0914601B0914701019693
:10092000A11DB11D8093440190934501A093460100
:10093000B0934701BF91AF919F918F913F912F91BC
:100940000F900FBE0F901F90189526E8230F029668
:10095000A11DB11DD2CF1F920F920FB60F9211247D
:100960002F933F934F935F936F937F938F939F93B7
:10097000AF93BF93EF93FF938DE491E00E947A01D0
:10098000FF91EF91BF91AF919F918F917F916F9167
:100990005F914F913F912F910F900FBE0F901F903D
:1009A00018951F920F920FB60F9211242F938F93C9
:1009B0009F93EF93FF93E0915D01F0915E01808141
:1009C000E0916301F091640182FD1BC090818091F0
:1009D00066018F5F8F7320916701821741F0E0916C
:1009E0006601F0E0E35BFE4F958F80936601FF9117
:1009F000EF919F918F912F910F900FBE0F901F90AD
:100A000018958081F4CFEDE4F1E01382128288EE34
:100A100093E0A0E0B0E084839583A683B7838AE067
:100A200091E09183808385EC90E09587848784ECC6
:100A300090E09787868780EC90E0918B808B81ECAB
:100A400090E0938B828B82EC90E0958B848B86EC8C
:100A500090E0978B868B118E128E138E148EE0EFA2
:100A6000F1E0138212828CE191E09183808382E035
:100A700084838FEF858383E0868384E0878385E0AA
:100A8000808786E0818787E08287138614861586B3
:100A90001686178661E080E10E94A9026CE371E08E
:100AA0008AEE91E00C944804CF93DF93CDB7DEB784
:100AB00068970FB6F894DEBF0FBECDBF789484B5AB
:100AC000826084BD84B5816084BD85B5826085BD4A
:100AD00085B5816085BD80916E00816080936E00D8
:100AE00010928100809181008260809381008091CA
:100AF000810081608093810080918000816080937B
:100B000080008091B10084608093B1008091B0003A
:100B100081608093B00080917A00846080937A0035
:100B200080917A00826080937A0080917A0081605F
:100B300080937A0080917A00806880937A00109286
:100B4000C10063E084E10E94A902E0915D01F0919F
:100B50005E0182E08083E0915901F0915A01108298
:100B6000E0915B01F0915C018FEC80831092650154
:100B7000E0916101F091620186E08083E0915F0184
:100B8000F0916001808180618083E0915F01F0914C
:100B90006001808188608083E0915F01F091600155
:100BA000808180688083E0915F01F09160018081A5
:100BB0008F7D808380E00E944A034AE050E064E237
:100BC00071E080EF91E00E94F3009BE3A92E9FE18A
:100BD000B92E20E0C22E20E0D22E8DE491E00E94BA
:100BE0005A01892B09F4A2C08DE491E00E943801DA
:100BF0000091EE011091EF018A3009F0A9C0012B9C
:100C000009F4A0C0E090EA01F090EB0160E270E02E
:100C1000C7010E94F3088C010E191F09892B11F4DA
:100C20000FEF1FEF6CE270E0C7010E94F30800971E
:100C300009F48AC09C012E193F0979011127A801E6
:100C400070E060E0CE0143960E94EC03FF24B801FF
:100C50006F5F7F4FA701CE010D960E94EC0340917C
:100C6000EE015091EF01B7016F5F7F4FCE01079604
:100C70000E94EC0381E00E94A302C5010197F1F7F5
:100C800080E00E944A036FE271E0CE0101960E946B
:100C90004804BE016D5E7F4FCE0101960E9498030D
:100CA0000E942001CE0101960E94590481E00E9419
:100CB0004A0366E371E0CE0101960E944804BE013A
:100CC000635F7F4FCE0101960E9498030E9420012E
:100CD000CE0101960E94590482E00E944A036DE30E
:100CE00071E0CE0101960E944804BE01695F7F4F0A
:100CF000CE0101960E9498030E942001CE01019628
:100D00000E945904CE0107960E945904CE010D9607
:100D10000E945904CE0143960E94590450E040E0DD
:100D20006CE371E08AEE91E00E94CB03C114D10420
:100D300009F453CF0E946601882309F44ECF0E9424
:100D400000004BCF0FEF1FEFEE24EA94FE2C76CF7E
:100D500089831A820F5F1F4FB8018AEE91E00E94CB
:100D60005E03882319F32091EA013091EB01809111
:100D7000EE019091EF01BE016F5F7F4F820F931FD5
:100D80000E94FE081093EF010093EE01CFCF8AEE90
:100D900091E00C9459042F923F924F925F926F9280
:100DA0007F928F929F92AF92BF92CF92DF92EF92FB
:100DB000FF920F931F93CF93DF93CDB7DEB7CA1B7C
:100DC000DB0B0FB6F894DEBF0FBECDBF09942A88A7
:100DD000398848885F846E847D848C849B84AA844F
:100DE000B984C884DF80EE80FD800C811B81AA81DC
:100DF000B981CE0FD11D0FB6F894DEBF0FBECDBFA7
:100E0000ED010895EE0FFF1F0590F491E02D099478
:100E10000F931F93CF93DF938230910510F482E0FC
:100E200090E0E0910A02F0910B0230E020E0B0E0A7
:100E3000A0E0309799F42115310509F44AC0281B28
:100E4000390B24303105D8F58A819B8161157105F4
:100E500089F1FB0193838283FE0111C0408151819E
:100E60000281138148175907E0F04817590799F490
:100E7000109761F012960C93129713961C9332966A
:100E8000CF01DF91CF911F910F91089500930A0236
:100E900010930B02F4CF2115310551F0421753077F
:100EA00038F0A901DB019A01BD01DF01F801C1CFD2
:100EB000EF01F9CF90930B0280930A02CDCFFE0190
:100EC000E20FF31F819391932250310939832883D4
:100ED000D7CF2091080230910902232B41F42091B1
:100EE00002013091030130930902209308022091FE
:100EF0000001309101012115310541F42DB73EB7B4
:100F00004091040150910501241B350BE09108022A
:100F1000F0910902E217F307A0F42E1B3F0B2817EC
:100F2000390778F0AC014E5F5F4F2417350748F062
:100F30004E0F5F1F509309024093080281939193D3
:100F40009FCFF0E0E0E09CCFCF93DF930097E9F0F4
:100F5000FC01329713821282A0910A02B0910B0217
:100F6000ED0130E020E01097A1F420813181820F63
:100F7000931F20910802309109022817390709F0C0
:100F800061C0F0930902E0930802DF91CF910895C8
:100F9000EA01CE17DF07E8F54A815B819E01411522
:100FA0005105B1F7E901FB83EA8349915991C40FD7
:100FB000D51FEC17FD0761F4808191810296840FA3
:100FC000951FE90199838883828193819B838A831A
:100FD000F0E0E0E012968D919C9113970097B9F59F
:100FE0002D913C911197CD010296820F931F209174
:100FF0000802309109022817390739F6309751F560
:1010000010920B0210920A02B0930902A0930802F8
:10101000BCCFD383C28340815181840F951FC817F1
:10102000D90761F44E5F5F4F88819981480F591F3E
:10103000518340838A819B8193838283211531056B
:1010400009F0B0CFF0930B02E0930A029ECFFD01AE
:10105000DC01C0CF13821282D7CFB0E0A0E0E3E37F
:10106000F8E00C94CD068C01009751F4CB010E945E
:1010700008078C01C801CDB7DEB7E0E10C94E906A2
:10108000FC01E60FF71F9C0122503109E217F3071C
:1010900008F49DC0D901CD91DC911197C617D707EF
:1010A00098F0C530D10530F3CE0104978617970725
:1010B00008F3C61BD70B2297C193D1936D937C93F2
:1010C000CF010E94A407D6CF5B01AC1ABD0A4C0128
:1010D0008C0E9D1EA0910A02B0910B02512C412C46
:1010E000F12CE12C109731F58091080290910902C2
:1010F0008815990509F05CC04616570608F058C0D7
:101100008091000190910101009741F48DB79EB745
:101110004091040150910501841B950BE817F907D4
:1011200008F055C0F0930902E0930802F9017183B9
:101130006083A0CF8D919C91119712966C9012971D
:1011400013967C901397A815B90559F56C0142E0E8
:10115000C40ED11CCA14DB0420F1AC014A195B098E
:10116000DA011296159780F0628273825183408370
:10117000D9016D937C93E114F10471F0D7011396BA
:10118000FC93EE93129776CF22968C0F9D1FF90158
:1011900091838083F301EFCFF0930B02E0930A0277
:1011A00069CF4816590608F42C017D01D3019ACF66
:1011B000CB010E9408077C01009749F0AE01B801FD
:1011C0000E94EA08C8010E94A407870153CF10E0DB
:1011D00000E050CFFB01DC0102C001900D924150B4
:1011E0005040D8F70895FC018191861721F088239B
:1011F000D9F7992708953197CF010895FB01DC01B4
:1012000001900D920020E1F7089510E0CDE5D0E0C7
:1012100004C0FE010E9402072196CE35D107C9F70E
:04122000F894FFCF70
:1012240000000C028000000000009C01F300290172
:10123400E9015A0138014C01000000005803F30091
:101244000A02090277616974696E672E2E2E0044C2
:101254006174653A200054696D653A200054656DE7
:04126400703A2000BC
:00000001FF
