:100000000C945E000C9486000C9486000C94860080
:100010000C9486000C9486000C9486000C94860048
:100020000C9486000C9486000C9486000C94A30516
:100030000C9486000C9486000C9486000C94860028
:100040000C9401050C9486000C9471050C944B05DE
:100050000C9486000C9486000C9486000C94860008
:100060000C9486000C948600000000080002010039
:100070000003040700000000000000000000000072
:10008000250028002B0000000000240027002A0083
:10009000040404040404040402020202020203032E
:1000A0000303030301020408102040800102040836
:1000B00010200102040810205F060E0911241FBE43
:1000C000CFEFD8E0DEBFCDBF11E0A0E0B1E0E2ECC1
:1000D000F8E102C005900D92AC34B107D9F722E0E7
:1000E000ACE4B1E001C01D92AF33B207E1F710E01C
:1000F000CDE5D0E004C02197FE010E94510ACC3525
:10010000D107C9F70E94EF060C94540C0C94000020
:1001100090E0FC01EC55FF4F249180579F4FFC016C
:100120008491882399F090E0880F991FFC01EA5789
:10013000FF4FA591B491FC01E458FF4F8591949134
:100140008FB7F894EC91E22BEC938FBF08958F92C8
:100150009F92AF92BF92FF920F931F93CF93DF9323
:10016000F09038022BE02F1508F455C020913A0288
:1001700008E512E0021B110927FD1395000F111F5E
:10018000000F111F20913902C8E8D0E0C21BD1092D
:1001900027FDD395CC0FDD1FCC0FDD1F4E010D2E9B
:1001A000000CAA08BB08DC01853B910514F0A4EB08
:1001B000B0E0B7FF02C0B0E0A0E09801012E000C53
:1001C000440B550B281939094A095B090E94AD09EE
:1001D00024EB30E040E050E00E948309820E931E41
:1001E000A41EB51E8C169D062CF0E8018016910603
:1001F0000CF4E4012297CC0FDD1F2FB7F8948F2D5C
:1002000090E0FC01EE0FFF1FE80FF91FEB50FE4FCF
:10021000D283C1832FBFDF91CF911F910F91FF90A8
:10022000BF90AF909F908F90089590E0FC01E859A7
:10023000FF4F2491FC01EC55FF4F3491FC01E05736
:10024000FF4FE491EE23C9F0222339F0233001F16E
:10025000A8F4213019F1223029F1F0E0EE0FFF1F50
:10026000E458FF4FA591B4918FB7F894EC916111C8
:1002700026C030953E233C938FBF08952730A9F0C8
:100280002830C9F0243049F7809180008F7D03C069
:10029000809180008F7780938000DFCF84B58F7747
:1002A00084BDDBCF84B58F7DFBCF8091B0008F778D
:1002B0008093B000D2CF8091B0008F7DF9CF3E2BDC
:1002C000DACF3FB7F8948091540190915501A091F5
:1002D0005601B091570126B5A89B05C02F3F19F0D4
:1002E0000196A11DB11D3FBFBA2FA92F982F8827B6
:1002F000BC01CD01620F711D811D911D42E0660F91
:10030000771F881F991F4A95D1F70895AF92BF9222
:10031000CF92DF92EF92FF920F931F93CF93DF93D1
:100320006C017B018B01040F151FEB015E01AE1800
:10033000BF08C017D10759F06991D601ED91FC9122
:100340000190F081E02DC6010995892B79F7C5014F
:10035000DF91CF911F910F91FF90EF90DF90CF90A1
:10036000BF90AF900895FC014481558160817181F7
:1003700080E292E00C948601FC01538D448D252F80
:1003800030E0842F90E0821B930B541710F0CF962F
:10039000089501970895FC01918D828D981761F061
:1003A000A28DAE0FBF2FB11D5D968C91928D9F5F78
:1003B0009F73928F90E008958FEF9FEF0895FC0157
:1003C000918D828D981731F0828DE80FF11D858D0A
:1003D00090E008958FEF9FEF0895FC01918D228D9D
:1003E000892F90E0805C9F4F821B91098F73992722
:1003F000089588E591E00E94ED0121E0892B09F440
:1004000020E0822F089580E090E0892B29F00E945F
:10041000F90181110C9400000895FC01A48DA80F2E
:10042000B92FB11DA35ABF4F2C91848D90E0019636
:100430008F739927848FA689B7892C93A089B18956
:100440008C91837080648C93938D848D981306C0F7
:100450000288F389E02D80818F7D80830895EF925B
:10046000FF920F931F93CF93DF93EC0181E0888F6E
:100470009B8D8C8D98131AC0E889F989808185FF3E
:1004800015C09FB7F894EE89FF896083E889F989E0
:1004900080818370806480839FBF81E090E0DF91E2
:1004A000CF911F910F91FF90EF900895F62E0B8D35
:1004B00010E00F5F1F4F0F731127E02E8C8D8E11F0
:1004C0000CC00FB607FCFACFE889F989808185FF57
:1004D000F5CFCE010E940D02F1CFEB8DEC0FFD2F79
:1004E000F11DE35AFF4FF0829FB7F8940B8FEA8912
:1004F000FB8980818062CFCFCF93DF93EC01888D21
:100500008823B9F0AA89BB89E889F9898C9185FD8E
:1005100003C0808186FD0DC00FB607FCF7CF8C911C
:1005200085FFF2CF808185FFEDCFCE010E940D02C5
:10053000E9CFDF91CF910895089590E080E008958C
:10054000CF93DF93EC0160E08E810E94150161E0A2
:100550008E810E94150160E08E810E9415018BE85A
:1005600091E00197F1F7DF91CF910895CF92DF925B
:10057000EF92FF920F931F93CF93DF936C017C0157
:1005800087E0E80EF11CD0E0C0E0062F10E0B801D3
:100590000C2E02C0759567950A94E2F76170F70119
:1005A00081917F010E9415012196C430D10579F710
:1005B000C601DF91CF911F910F91FF90EF90DF90D7
:1005C000CF900C94A002CF92DF92EF92FF920F9304
:1005D0001F93CF93DF93EC01F62E642F8C810E9442
:1005E00015018D818F3F19F060E00E9415010F2DDC
:1005F00010E08F8584FF25C06E0187E0C80ED11CF6
:10060000F12CE12CB8010E2C02C0759567950A9467
:10061000E2F76170F60181916F010E941501FFEF11
:10062000EF1AFF0A88E0E816F10461F7CE01DF91C6
:10063000CF911F910F91FF90EF90DF90CF900C948E
:10064000A002B80184E0759567958A95E1F7CE011F
:100650000E94B6026F2DCE01DF91CF911F910F91B5
:10066000FF90EF90DF90CF900C94B60240E0682F9F
:1006700080E292E00C94E302CF93DF93613029F0A3
:1006800090912F02986090932F0260933302109202
:10069000340290E49093350280933602805C80931C
:1006A0003702809124020E948800809125028F3FAA
:1006B00011F00E948800809126020E948800C0E20A
:1006C000D2E09E012052324080912F0284FD0AC068
:1006D00084E090E02196281739073CF48E810E942F
:1006E0008800EFCF88E090E0F5CF8BE39DE00197A5
:1006F000F1F760E0809124020E94150160E0809192
:1007000026020E941501809125028F3F19F060E0BA
:100710000E94150180912F0284FD39C063E080E2C0
:1007200092E00E94B602CBE4D6E4CE010197F1F745
:1007300063E080E292E00E94B6022197F1F763E065
:1007400080E292E00E94B60283E592E00197F1F721
:1007500062E080E292E00E94B60280912F02806205
:100760000E94360384E0809330028CE00E943603BE
:1007700081E00E9436038BE39FE10197F1F782E06D
:100780008093310286E0DF91CF910C943603806232
:100790000E9436038BE496E40197F1F780912F02D3
:1007A00080620E94360383E592E00197F1F7809121
:1007B0002F0280620E943603D0CF909133028917B6
:1007C00010F08FEF890FE82FF0E0E05EFD4F848995
:1007D00080680C94360341E00E94E30281E090E0DF
:1007E00008950F931F93CF93DF93EC018881998134
:1007F000009759F02A813B812617370730F081E0B6
:10080000DF91CF911F910F9108958B016F5F7F4F03
:100810000E947C0B009759F0998388831B830A837D
:100820002C813D81232B59F7FC011082E8CF80E019
:10083000E7CFEF92FF920F931F93CF93DF93611552
:10084000710541F480E0DF91CF911F910F91FF90EE
:10085000EF90089541155105B1F07B01EC010C8139
:100860001D81040F151FB8010E94F103882351F365
:10087000288139818C819D81B701820F931F0E944D
:100880004D0C1D830C8381E0DECFCF93DF93EC0111
:1008900088819981009711F00E94F30A19821882C9
:1008A0001D821C821B821A82DF91CF910895CF9303
:1008B000DF93EC01FB0144815581608171810E94CD
:1008C0001904811103C0CE010E944504CE01DF91BD
:1008D000CF910895EF92FF920F931F93CF93DF93E1
:1008E000EC017B018A01BA010E94F10381110BC066
:1008F000CE010E944504CE01DF91CF911F910F914F
:10090000FF90EF9008951D830C83B7018881998132
:100910000E944D0CF0CFFB0101900020E9F73197C8
:10092000AF01461B570B0C946A04CF92DF92EF92F3
:10093000FF920F931F93CF93DF93EC016B017A012A
:100940004617570720F48D2D6A01E62EF82E1982DE
:1009500018821B821A821D821C8250E040E06EE3E6
:1009600071E0CE010E946A0400911E0210911F02E4
:10097000C016D10600F5E016F10608F48701E091F3
:100980001A02F0911B02E00FF11FF08010826091BB
:100990001A0270911B026C0D7D1DCE01611571054F
:1009A000A1F00E948B0480911A0290911B02080F03
:1009B000191FF801F082CE01DF91CF911F910F91A5
:1009C000FF90EF90DF90CF9008950E944504EBCF09
:1009D000FC01118210821382128215821482FB01A3
:1009E00001900020E9F73197AF01461B570B0C949B
:1009F0006A04FC0180819181009711F00C94F30A44
:100A000008951F920F920FB60F9211242F933F93C8
:100A10008F939F93AF93BF93809150019091510119
:100A2000A0915201B091530130914F0123E0230F67
:100A30002D3758F50196A11DB11D20934F018093CC
:100A4000500190935101A0935201B09353018091B2
:100A5000540190915501A0915601B0915701019612
:100A6000A11DB11D8093540190935501A09356018F
:100A7000B0935701BF91AF919F918F913F912F916B
:100A80000F900FBE0F901F90189526E8230F029627
:100A9000A11DB11DD2CF1F920F920FB60F9211243C
:100AA0002F933F934F935F936F937F938F939F9376
:100AB000AF93BF93EF93FF9388E591E00E940D02FF
:100AC000FF91EF91BF91AF919F918F917F916F9126
:100AD0005F914F913F912F910F900FBE0F901F90FC
:100AE00018951F920F920FB60F9211242F938F9388
:100AF0009F93EF93FF93E0916801F09169018081EA
:100B0000E0916E01F0916F0182FD1BC09081809198
:100B100071018F5F8F7320917201821741F0E09114
:100B20007101F0E0E85AFE4F958F80937101FF91BB
:100B3000EF919F918F912F910F900FBE0F901F906B
:100B400018958081F4CF1F920F920FB60F92112447
:100B50002F933F934F935F936F937F938F939F93C5
:100B6000AF93BF93CF93DF93EF93FF9380914C01AB
:100B7000C0911902D0E087FF24C010928500109226
:100B8000840080914C018F5F80934C0180914C01D7
:100B9000082E000C990B8C179D0724F480914C01B2
:100BA0008C30C4F18091840090918500049680344B
:100BB0009C4908F47AC08091840090918500049645
:100BC00076C080914C01082E000C990B8C179D0764
:100BD000C4F6E0914C018E2FEE0F990BFC01EE0F45
:100BE000FF1FE80FF91FEB50FE4F808186FFC9CF32
:100BF000E0914C018E2FEE0F990BFC01EE0FFF1FC1
:100C0000E80FF91FEB50FE4F808160E08F730E9468
:100C10001501B7CF2091840030918500E0914C01FF
:100C20008E2FEE0F990BFC01EE0FFF1FE80FF91F3F
:100C3000EB50FE4F81819281820F931F9093890028
:100C400080938800E0914C018E2FEE0F990BFC01F0
:100C5000EE0FFF1FE80FF91FEB50FE4F808186FF5C
:100C600011C0E0914C018E2FEE0F990BFC01EE0F9D
:100C7000FF1FE80FF91FEB50FE4F808161E08F737B
:100C80000E941501FF91EF91DF91CF91BF91AF913C
:100C90009F918F917F916F915F914F913F912F9194
:100CA0000F900FBE0F901F90189580E49CE99093D1
:100CB0008900809388008FEF80934C01E3CF1092DE
:100CC0005B0110925A0188EE93E0A0E0B0E08093BF
:100CD0005C0190935D01A0935E01B0935F018AE097
:100CE00091E0909359018093580185EC90E09093A6
:100CF00065018093640184EC90E090936701809398
:100D0000660180EC90E0909369018093680181EC2A
:100D100090E090936B0180936A0182EC90E0909355
:100D20006D0180936C0186EC90E090936F0180934D
:100D30006E01109271011092720110927301109263
:100D40007401809119028C3008F045C091E0980F31
:100D5000909319028093380290E0FC01EE0FFF1F80
:100D6000E80FF91FEB50FE4F88EB9BE092838183E5
:100D700010922302109222028CE191E090932102C2
:100D80008093200282E0809324028FEF80932502DB
:100D900083E08093260284E08093270285E080939D
:100DA000280286E08093290287E080932A0210922D
:100DB0002B0210922C0210922D0210922E021092F1
:100DC0002F0261E080E10E943C036EE371E08AE162
:100DD00092E00C94E8048FEF80933802C9CFCF9350
:100DE000DF93CDB7DEB7A4970FB6F894DEBF0FBE82
:100DF000CDBF789484B5826084BD84B5816084BDA4
:100E000085B5826085BD85B5816085BD80916E00A8
:100E1000816080936E0010928100809181008260D9
:100E20008093810080918100816080938100809116
:100E300080008160809380008091B1008460809305
:100E4000B1008091B00081608093B00080917A0001
:100E5000846080937A0080917A00826080937A0027
:100E600080917A00816080937A0080917A00806816
:100E700080937A001092C100E0916801F0916901BD
:100E800082E08083E0916401F09165011082E0913D
:100E90006601F09167018FEC808310927001E09100
:100EA0006C01F0916D0186E08083E0916A01F09120
:100EB0006B01808180618083E0916A01F0916B0118
:100EC000808188608083E0916A01F0916B0180816C
:100ED00080688083E0916A01F0916B0180818F7D51
:100EE0008083809138028C3008F050C089E00E94E5
:100EF000880080913802282F30E0F901EE0FFF1FA3
:100F0000E20FF31FEB50FE4F9081907C996090832D
:100F10001092390210923A022CE0622F0E941D0AB0
:100F2000829FB001112430E020E0AB01420F531F3B
:100F3000FA01EE0FFF1FE40FF51FEB50FE4F9081FB
:100F400096FD16C02F5F3F4F2C30310571F7811190
:100F50000FC01092800082E0809381001092850083
:100F600010928400B19A80916F00826080936F002C
:100F7000E09138028E2F90E0FC01EE0FFF1FE80F8A
:100F8000F91FEB50FE4F80818064808390E080E009
:100F90000E94A70064E084E10E943C0380E00E947C
:100FA000DD034CE050E064E271E080E292E00E94F8
:100FB00086010E9461014B015C0138EEC32E33E0D3
:100FC000D32EE12CF12C0E946101681979098A095C
:100FD0009B09683E734081059105A8F321E0C21A80
:100FE000D108E108F10888EE880E83E0981EA11C64
:100FF000B11CC114D104E104F10429F79BE3A92E2B
:101000009FE1B92E2EE0822E9924939480E0C82E81
:1010100080E0D82E88E591E00E94ED01892B09F44B
:10102000E5C088E591E00E94CB018A3009F0EAC072
:1010300080911E0290911F02892B09F4D1C060900B
:101040001A0270901B0260E270E0C3010E94420C21
:101050008C0106191709892B11F40FEF1FEF6CE2B1
:1010600070E0C3010E94420C009709F4B9C07C01F2
:10107000E618F708F7FCB4C017FDB2C0A80170E08D
:1010800060E0CE014F960E949504B8016F5F7F4FDC
:10109000A701CE0149960E94950440911E025091ED
:1010A0001F02B7016F5F7F4FCE0101960E9495042A
:1010B00089819A81412C512C3201009719F00E94AC
:1010C00012092B01CE0101960E94F90481E00E94D1
:1010D0003603C5010197F1F780E00E94DD0361E36B
:1010E00071E0CE0101960E94E804BE01615E7F4F6F
:1010F000CE0101960E9457040E94B301CE010196D1
:101100000E94F90481E00E94DD0368E371E0CE01F2
:1011100001960E94E804BE01675E7F4FCE010196F2
:101120000E9457040E94B301CE0101960E94F90467
:101130004A94452879F480914D0190914E01865A48
:101140009F4FB4010E94290A90934E0180934D0154
:101150000E94A70082E00E94DD0380914D019091E2
:101160004E011C8A1B8A1E8A1D8A188E1F8A4AE01D
:10117000BE016F5F7F4F0E943909BE016F5F7F4FD5
:10118000CE0143960E948B046FE371E0CE0101967D
:101190000E94E804BE016D5E7F4FCE0101960E9461
:1011A00057048C0143E050E067E471E00E941904A9
:1011B000811103C0C8010E944504C8010E94B30107
:1011C000CE0101960E94F904CE0143960E94F904D3
:1011D000CE0149960E94F904CE014F960E94F9046F
:1011E0006EE371E08AE192E00E948B04C114D104A5
:1011F00009F410CF0E94F901882309F407CF0E9457
:10120000000004CF89831A8241E050E0BE016F5F85
:101210007F4F8AE192E00E941904E8CF8AE192E0D0
:101220000C94F9041F93FC0199278827BC01E894CA
:1012300011911032E9F3193010F01E30C8F31B324F
:1012400051F01D3249F4689406C00E944409610FB0
:10125000711D811D911D119110531A30B0F33EF490
:1012600090958095709561957F4F8F4F9F4F1F91FF
:101270000895BB274A3031F4992322F4BDE29095BA
:1012800081959F4F0C945A09592F482F372F262F9D
:10129000660F771F881F991F660F771F881F991F7A
:1012A000620F731F841F951F660F771F881F991F7A
:1012B0000895BB27FB015527AA27880F991FAA1F4E
:1012C000A41710F0A41B83955051B9F7A05DAA3361
:1012D00008F0A95DA193009779F7B111B19311922C
:1012E000CB010C947309DC01FC01672F719177230A
:1012F000E1F7329704C07C916D9370836291AE17D1
:10130000BF07C8F30895052E97FB1EF400940E94B2
:101310009A0957FD07D00E94EC0907FC03D04EF450
:101320000C949A0950954095309521953F4F4F4F19
:101330005F4F089590958095709561957F4F8F4F81
:101340009F4F08950E940E0AA59F900DB49F900D87
:10135000A49F800D911D11240895B7FF0C94A2093C
:101360000E94A209821B930B08952F923F924F92E5
:101370005F926F927F928F929F92AF92BF92CF9225
:10138000DF92EF92FF920F931F93CF93DF93CDB72E
:10139000DEB7CA1BDB0B0FB6F894DEBF0FBECDBFA6
:1013A00009942A88398848885F846E847D848C8477
:1013B0009B84AA84B984C884DF80EE80FD800C8180
:1013C0001B81AA81B981CE0FD11D0FB6F894DEBF63
:1013D0000FBECDBFED010895A1E21A2EAA1BBB1BC3
:1013E000FD010DC0AA1FBB1FEE1FFF1FA217B307F1
:1013F000E407F50720F0A21BB30BE40BF50B661F07
:10140000771F881F991F1A9469F7609570958095CA
:1014100090959B01AC01BD01CF010895A29FB00141
:10142000B39FC001A39F700D811D1124911DB29F18
:10143000700D811D1124911D0895991B79E004C040
:10144000991F961708F0961B881F7A95C9F7809503
:10145000089597FB072E16F4009407D077FD09D066
:101460000E943D0A07FC05D03EF4909581959F4F60
:101470000895709561957F4F0895AA1BBB1B51E19C
:1014800007C0AA1FBB1FA617B70710F0A61BB70BF4
:10149000881F991F5A95A9F780959095BC01CD0199
:1014A0000895EE0FFF1F0590F491E02D09940F931E
:1014B0001F93CF93DF938230910510F482E090E088
:1014C000E0913D02F0913E0230E020E0B0E0A0E08B
:1014D000309799F42115310509F44AC0281B390BBE
:1014E00024303105D8F58A819B816115710589F118
:1014F000FB0193838283FE0111C0408151810281EF
:10150000138148175907E0F04817590799F41097C5
:1015100061F012960C93129713961C933296CF019A
:10152000DF91CF911F910F91089500933D02109389
:101530003E02F4CF2115310551F04217530738F020
:10154000A901DB019A01BD01DF01F801C1CFEF0163
:10155000F9CF90933E0280933D02CDCFFE01E20F82
:10156000F31F819391932250310939832883D7CF78
:1015700020913B0230913C02232B41F42091020147
:101580003091030130933C0220933B0220910001F3
:10159000309101012115310541F42DB73EB740913D
:1015A000040150910501241B350BE0913B02F091A1
:1015B0003C02E217F307A0F42E1B3F0B2817390754
:1015C00078F0AC014E5F5F4F2417350748F04E0F9F
:1015D0005F1F50933C0240933B02819391939FCFB6
:1015E000F0E0E0E09CCFCF93DF930097E9F0FC01BF
:1015F000329713821282A0913D02B0913E02ED011A
:1016000030E020E01097A1F420813181820F931FF8
:1016100020913B0230913C022817390709F061C044
:10162000F0933C02E0933B02DF91CF910895EA01F1
:10163000CE17DF07E8F54A815B819E014115510510
:10164000B1F7E901FB83EA8349915991C40FD51F92
:10165000EC17FD0761F4808191810296840F951F3C
:10166000E90199838883828193819B838A83F0E057
:10167000E0E012968D919C9113970097B9F52D910A
:101680003C911197CD010296820F931F20913B024E
:1016900030913C022817390739F6309751F51092EE
:1016A0003E0210923D02B0933C02A0933B02BCCF9D
:1016B000D383C28340815181840F951FC817D907F6
:1016C00061F44E5F5F4F88819981480F591F5183A4
:1016D00040838A819B81938382832115310509F0A0
:1016E000B0CFF0933E02E0933D029ECFFD01DC01BE
:1016F000C0CF13821282D7CFB0E0A0E0E2E8FBE0D7
:101700000C94B7098C01009751F4CB010E94570A41
:101710008C01C801CDB7DEB7E0E10C94D309FC0120
:10172000E60FF71F9C0122503109E217F30708F476
:101730009DC0D901CD91DC911197C617D70798F0BC
:10174000C530D10530F3CE0104978617970708F30B
:10175000C61BD70B2297C193D1936D937C93CF0176
:101760000E94F30AD6CF5B01AC1ABD0A4C018C0E65
:101770009D1EA0913D02B0913E02512C412CF12CB6
:10178000E12C109731F580913B0290913C02881535
:10179000990509F05CC04616570608F058C08091BC
:1017A000000190910101009741F48DB79EB74091DF
:1017B000040150910501841B950BE817F90708F007
:1017C00055C0F0933C02E0933B02F90171836083C2
:1017D000A0CF8D919C91119712966C9012971396B1
:1017E0007C901397A815B90559F56C0142E0C40E19
:1017F000D11CCA14DB0420F1AC014A195B09DA01DF
:101800001296159780F06282738251834083D901CA
:101810006D937C93E114F10471F0D7011396FC935E
:10182000EE93129776CF22968C0F9D1FF90191832C
:101830008083F301EFCFF0933E02E0933D0269CF46
:101840004816590608F42C017D01D3019ACFCB012B
:101850000E94570A7C01009749F0AE01B8010E942E
:10186000390CC8010E94F30A870153CF10E000E051
:1018700050CFFB01DC0102C001900D92415050405D
:10188000D8F70895FC018191861721F08823D9F7B4
:10189000992708953197CF010895FB01DC0101904C
:1018A0000D920020E1F7089510E0CDE5D0E004C0EE
:1018B000FE010E94510A2196CE35D107C9F7F8944E
:0218C000FFCF58
:1018C20000003F028000000000002F028601BC01E0
:1018D2007C02ED01CB01DF0100000000EB03860179
:1018E2009D029C0253797374656D2052656164791F
:1018F20000646174653A200074696D653A20005392
:0C1902006572766F3A2000646567000093
:00000001FF
